{"contracts/ResearchFundingPlatform.sol":{"ResearchFundingPlatform":{"abi":[{"inputs":[],"stateMutability":"nonpayable","type":"constructor"},{"anonymous":false,"inputs":[{"indexed":true,"internalType":"uint256","name":"proposalId","type":"uint256"},{"indexed":false,"internalType":"uint256","name":"milestoneNumber","type":"uint256"}],"name":"MilestoneApproved","type":"event"},{"anonymous":false,"inputs":[{"indexed":true,"internalType":"uint256","name":"proposalId","type":"uint256"},{"indexed":false,"internalType":"uint256","name":"milestoneNumber","type":"uint256"}],"name":"MilestoneSubmitted","type":"event"},{"anonymous":false,"inputs":[{"indexed":true,"internalType":"address","name":"previousOwner","type":"address"},{"indexed":true,"internalType":"address","name":"newOwner","type":"address"}],"name":"OwnershipTransferred","type":"event"},{"anonymous":false,"inputs":[{"indexed":true,"internalType":"uint256","name":"proposalId","type":"uint256"},{"indexed":true,"internalType":"address","name":"researcher","type":"address"}],"name":"ProposalCreated","type":"event"},{"anonymous":false,"inputs":[{"indexed":true,"internalType":"uint256","name":"proposalId","type":"uint256"},{"indexed":true,"internalType":"address","name":"funder","type":"address"},{"indexed":false,"internalType":"uint256","name":"amount","type":"uint256"}],"name":"ProposalFunded","type":"event"},{"anonymous":false,"inputs":[{"indexed":true,"internalType":"address","name":"researcher","type":"address"},{"indexed":false,"internalType":"bytes32","name":"openCampusId","type":"bytes32"}],"name":"ResearcherRegistered","type":"event"},{"inputs":[],"name":"MAX_MILESTONES","outputs":[{"internalType":"uint256","name":"","type":"uint256"}],"stateMutability":"view","type":"function"},{"inputs":[],"name":"MIN_FUNDING_AMOUNT","outputs":[{"internalType":"uint256","name":"","type":"uint256"}],"stateMutability":"view","type":"function"},{"inputs":[{"internalType":"string","name":"_title","type":"string"},{"internalType":"string","name":"_description","type":"string"},{"internalType":"uint256","name":"_fundingAmount","type":"uint256"},{"internalType":"string[]","name":"_milestoneDescriptions","type":"string[]"},{"internalType":"uint256[]","name":"_milestoneFunds","type":"uint256[]"},{"internalType":"uint256[]","name":"_milestoneDeadlines","type":"uint256[]"}],"name":"createResearchProposal","outputs":[],"stateMutability":"nonpayable","type":"function"},{"inputs":[{"internalType":"uint256","name":"_proposalId","type":"uint256"}],"name":"fundProposal","outputs":[],"stateMutability":"payable","type":"function"},{"inputs":[{"internalType":"address","name":"_researcher","type":"address"}],"name":"getResearcherProposals","outputs":[{"internalType":"uint256[]","name":"","type":"uint256[]"}],"stateMutability":"view","type":"function"},{"inputs":[],"name":"owner","outputs":[{"internalType":"address","name":"","type":"address"}],"stateMutability":"view","type":"function"},{"inputs":[],"name":"proposalCounter","outputs":[{"internalType":"uint256","name":"","type":"uint256"}],"stateMutability":"view","type":"function"},{"inputs":[{"internalType":"uint256","name":"","type":"uint256"}],"name":"proposals","outputs":[{"internalType":"uint256","name":"id","type":"uint256"},{"internalType":"address","name":"researcher","type":"address"},{"internalType":"string","name":"title","type":"string"},{"internalType":"string","name":"description","type":"string"},{"internalType":"uint256","name":"fundingAmount","type":"uint256"},{"internalType":"uint256","name":"totalMilestones","type":"uint256"},{"internalType":"uint256","name":"currentMilestone","type":"uint256"},{"internalType":"enum ResearchFundingPlatform.ProposalStatus","name":"status","type":"uint8"}],"stateMutability":"view","type":"function"},{"inputs":[{"internalType":"bytes32","name":"_openCampusId","type":"bytes32"},{"internalType":"string","name":"_name","type":"string"},{"internalType":"string","name":"_university","type":"string"},{"internalType":"string[]","name":"_researchInterests","type":"string[]"}],"name":"registerResearcher","outputs":[],"stateMutability":"nonpayable","type":"function"},{"inputs":[],"name":"renounceOwnership","outputs":[],"stateMutability":"nonpayable","type":"function"},{"inputs":[{"internalType":"address","name":"","type":"address"},{"internalType":"uint256","name":"","type":"uint256"}],"name":"researcherProposals","outputs":[{"internalType":"uint256","name":"","type":"uint256"}],"stateMutability":"view","type":"function"},{"inputs":[{"internalType":"address","name":"","type":"address"}],"name":"researchers","outputs":[{"internalType":"address","name":"walletAddress","type":"address"},{"internalType":"bytes32","name":"openCampusId","type":"bytes32"},{"internalType":"string","name":"name","type":"string"},{"internalType":"string","name":"university","type":"string"},{"internalType":"uint256","name":"reputation","type":"uint256"},{"internalType":"bool","name":"isVerified","type":"bool"}],"stateMutability":"view","type":"function"},{"inputs":[{"internalType":"uint256","name":"_proposalId","type":"uint256"},{"internalType":"uint256","name":"_milestoneNumber","type":"uint256"}],"name":"submitMilestone","outputs":[],"stateMutability":"nonpayable","type":"function"},{"inputs":[{"internalType":"address","name":"newOwner","type":"address"}],"name":"transferOwnership","outputs":[],"stateMutability":"nonpayable","type":"function"},{"inputs":[{"internalType":"address","name":"_researcher","type":"address"}],"name":"verifyResearcher","outputs":[],"stateMutability":"nonpayable","type":"function"},{"inputs":[],"name":"withdrawFunds","outputs":[],"stateMutability":"nonpayable","type":"function"},{"stateMutability":"payable","type":"receive"}],"evm":{"bytecode":{"linkReferences":{},"object":"60806040523480156200001157600080fd5b5062000032620000266200003f60201b60201c565b6200004760201b60201c565b600180819055506200010b565b600033905090565b60008060009054906101000a900473ffffffffffffffffffffffffffffffffffffffff169050816000806101000a81548173ffffffffffffffffffffffffffffffffffffffff021916908373ffffffffffffffffffffffffffffffffffffffff1602179055508173ffffffffffffffffffffffffffffffffffffffff168173ffffffffffffffffffffffffffffffffffffffff167f8be0079c531659141344cd1fd0a4f28419497f9722a3daafe3b4186f6b6457e060405160405180910390a35050565b61292f806200011b6000396000f3fe6080604052600436106100f75760003560e01c8063715018a61161008a578063ad462ba111610059578063ad462ba11461032d578063d2a7d38a14610356578063e210f4b514610381578063f2fde38b1461039d576100fe565b8063715018a61461028557806373fd653d1461029c5780638da5cb5b146102c5578063a1c92b9a146102f0576100fe565b806324600fc3116100c657806324600fc3146101dd578063398642dc146101f45780634c05abeb1461021d57806356046b1a14610248576100fe565b8063013cf08b1461010357806301bc237d146101475780630875b784146101895780630c0512e9146101b2576100fe565b366100fe57005b600080fd5b34801561010f57600080fd5b5061012a60048036038101906101259190611632565b6103c6565b60405161013e9897969594939291906117b6565b60405180910390f35b34801561015357600080fd5b5061016e6004803603810190610169919061186e565b61054b565b604051610180969594939291906118cf565b60405180910390f35b34801561019557600080fd5b506101b060048036038101906101ab919061193e565b6106c4565b005b3480156101be57600080fd5b506101c761099a565b6040516101d4919061197e565b60405180910390f35b3480156101e957600080fd5b506101f26109a0565b005b34801561020057600080fd5b5061021b60048036038101906102169190611be0565b6109f8565b005b34801561022957600080fd5b50610232610c11565b60405161023f919061197e565b60405180910390f35b34801561025457600080fd5b5061026f600480360381019061026a919061186e565b610c16565b60405161027c9190611d59565b60405180910390f35b34801561029157600080fd5b5061029a610cad565b005b3480156102a857600080fd5b506102c360048036038101906102be919061186e565b610cc1565b005b3480156102d157600080fd5b506102da610d2d565b6040516102e79190611d7b565b60405180910390f35b3480156102fc57600080fd5b5061031760048036038101906103129190611d96565b610d56565b604051610324919061197e565b60405180910390f35b34801561033957600080fd5b50610354600480360381019061034f9190611e99565b610d87565b005b34801561036257600080fd5b5061036b611172565b604051610378919061197e565b60405180910390f35b61039b60048036038101906103969190611632565b61117e565b005b3480156103a957600080fd5b506103c460048036038101906103bf919061186e565b611341565b005b60036020528060005260406000206000915090508060000154908060010160009054906101000a900473ffffffffffffffffffffffffffffffffffffffff169080600201805461041590611fe1565b80601f016020809104026020016040519081016040528092919081815260200182805461044190611fe1565b801561048e5780601f106104635761010080835404028352916020019161048e565b820191906000526020600020905b81548152906001019060200180831161047157829003601f168201915b5050505050908060030180546104a390611fe1565b80601f01602080910402602001604051908101604052809291908181526020018280546104cf90611fe1565b801561051c5780601f106104f15761010080835404028352916020019161051c565b820191906000526020600020905b8154815290600101906020018083116104ff57829003601f168201915b5050505050908060040154908060050154908060060154908060070160009054906101000a900460ff16905088565b60026020528060005260406000206000915090508060000160009054906101000a900473ffffffffffffffffffffffffffffffffffffffff169080600101549080600201805461059a90611fe1565b80601f01602080910402602001604051908101604052809291908181526020018280546105c690611fe1565b80156106135780601f106105e857610100808354040283529160200191610613565b820191906000526020600020905b8154815290600101906020018083116105f657829003601f168201915b50505050509080600301805461062890611fe1565b80601f016020809104026020016040519081016040528092919081815260200182805461065490611fe1565b80156106a15780601f10610676576101008083540402835291602001916106a1565b820191906000526020600020905b81548152906001019060200180831161068457829003601f168201915b5050505050908060050154908060060160009054906101000a900460ff16905086565b60006003600084815260200190815260200160002090503373ffffffffffffffffffffffffffffffffffffffff168160010160009054906101000a900473ffffffffffffffffffffffffffffffffffffffff1673ffffffffffffffffffffffffffffffffffffffff161461076d576040517f08c379a000000000000000000000000000000000000000000000000000000000815260040161076490612084565b60405180910390fd5b806005015482106107b3576040517f08c379a00000000000000000000000000000000000000000000000000000000081526004016107aa906120f0565b60405180910390fd5b600081600901600084815260200190815260200160002090508060020160009054906101000a900460ff161561081e576040517f08c379a00000000000000000000000000000000000000000000000000000000081526004016108159061215c565b60405180910390fd5b8060030154421115610865576040517f08c379a000000000000000000000000000000000000000000000000000000000815260040161085c906121c8565b60405180910390fd5b60018160020160006101000a81548160ff02191690831515021790555081600601600081548092919061089790612217565b919050555081600501548260060154036108d95760048260070160006101000a81548160ff021916908360058111156108d3576108d261173f565b5b02179055505b3373ffffffffffffffffffffffffffffffffffffffff166108fc82600101549081150290604051600060405180830381858888f19350505050158015610923573d6000803e3d6000fd5b50837f26cf581e2709e0615164af15a371b2dd10fb48d5baed91e9eacd557633c16bcb84604051610954919061197e565b60405180910390a2837f939da3b627c123c81fe5aacebf925163337a0d4f8a03724640618078cad248948460405161098c919061197e565b60405180910390a250505050565b60055481565b6109a86113c4565b6109b0610d2d565b73ffffffffffffffffffffffffffffffffffffffff166108fc479081150290604051600060405180830381858888f193505050501580156109f5573d6000803e3d6000fd5b50565b600073ffffffffffffffffffffffffffffffffffffffff16600260003373ffffffffffffffffffffffffffffffffffffffff1673ffffffffffffffffffffffffffffffffffffffff16815260200190815260200160002060000160009054906101000a900473ffffffffffffffffffffffffffffffffffffffff1673ffffffffffffffffffffffffffffffffffffffff1614610ac9576040517f08c379a0000000000000000000000000000000000000000000000000000000008152600401610ac0906122ab565b60405180910390fd5b6000600260003373ffffffffffffffffffffffffffffffffffffffff1673ffffffffffffffffffffffffffffffffffffffff1681526020019081526020016000209050338160000160006101000a81548173ffffffffffffffffffffffffffffffffffffffff021916908373ffffffffffffffffffffffffffffffffffffffff16021790555084816001018190555083816002019081610b699190612477565b5082816003019081610b7b9190612477565b5081816004019080519060200190610b9492919061150e565b506000816005018190555060008160060160006101000a81548160ff0219169083151502179055503373ffffffffffffffffffffffffffffffffffffffff167f9c3f960ee20d42d0a3230bb124c6494bb76f712bcfd578f34ddd476adf1051d286604051610c029190612549565b60405180910390a25050505050565b600581565b6060600460008373ffffffffffffffffffffffffffffffffffffffff1673ffffffffffffffffffffffffffffffffffffffff168152602001908152602001600020805480602002602001604051908101604052809291908181526020018280548015610ca157602002820191906000526020600020905b815481526020019060010190808311610c8d575b50505050509050919050565b610cb56113c4565b610cbf6000611442565b565b610cc96113c4565b6000600260008373ffffffffffffffffffffffffffffffffffffffff1673ffffffffffffffffffffffffffffffffffffffff168152602001908152602001600020905060018160060160006101000a81548160ff0219169083151502179055505050565b60008060009054906101000a900473ffffffffffffffffffffffffffffffffffffffff16905090565b60046020528160005260406000208181548110610d7257600080fd5b90600052602060002001600091509150505481565b600073ffffffffffffffffffffffffffffffffffffffff16600260003373ffffffffffffffffffffffffffffffffffffffff1673ffffffffffffffffffffffffffffffffffffffff16815260200190815260200160002060000160009054906101000a900473ffffffffffffffffffffffffffffffffffffffff1673ffffffffffffffffffffffffffffffffffffffff1603610e58576040517f08c379a0000000000000000000000000000000000000000000000000000000008152600401610e4f906125b0565b60405180910390fd5b600583511115610e9d576040517f08c379a0000000000000000000000000000000000000000000000000000000008152600401610e949061261c565b60405180910390fd5b67016345785d8a0000841015610ee8576040517f08c379a0000000000000000000000000000000000000000000000000000000008152600401610edf90612688565b60405180910390fd5b600060056000815480929190610efd90612217565b9190505590506000600360008381526020019081526020016000209050818160000181905550338160010160006101000a81548173ffffffffffffffffffffffffffffffffffffffff021916908373ffffffffffffffffffffffffffffffffffffffff16021790555087816002019081610f779190612477565b5086816003019081610f899190612477565b5085816004018190555060008160070160006101000a81548160ff02191690836005811115610fbb57610fba61173f565b5b02179055508451816005018190555060005b85518110156110bd576040518060800160405280878381518110610ff457610ff36126a8565b5b60200260200101518152602001868381518110611014576110136126a8565b5b6020026020010151815260200160001515815260200185838151811061103d5761103c6126a8565b5b602002602001015181525082600901600083815260200190815260200160002060008201518160000190816110729190612477565b506020820151816001015560408201518160020160006101000a81548160ff0219169083151502179055506060820151816003015590505080806110b590612217565b915050610fcd565b50600460003373ffffffffffffffffffffffffffffffffffffffff1673ffffffffffffffffffffffffffffffffffffffff1681526020019081526020016000208290806001815401808255809150506001900390600052602060002001600090919091909150553373ffffffffffffffffffffffffffffffffffffffff16827fcd423cc1203c0af96b9b3d68d73b3064a69de2d14450bb7181c5e5df2132b35860405160405180910390a35050505050505050565b67016345785d8a000081565b6000600360008381526020019081526020016000209050600060058111156111a9576111a861173f565b5b8160070160009054906101000a900460ff1660058111156111cd576111cc61173f565b5b1461120d576040517f08c379a000000000000000000000000000000000000000000000000000000000815260040161120490612749565b60405180910390fd5b60003411611250576040517f08c379a0000000000000000000000000000000000000000000000000000000008152600401611247906127db565b60405180910390fd5b80600801339080600181540180825580915050600190039060005260206000200160009091909190916101000a81548173ffffffffffffffffffffffffffffffffffffffff021916908373ffffffffffffffffffffffffffffffffffffffff160217905550806004015447106112ee5760028160070160006101000a81548160ff021916908360058111156112e8576112e761173f565b5b02179055505b3373ffffffffffffffffffffffffffffffffffffffff16827f5b47478b1a9bcccc0683800f537f513a17c66ebb7a9b7e2773053b37fc83bb0534604051611335919061197e565b60405180910390a35050565b6113496113c4565b600073ffffffffffffffffffffffffffffffffffffffff168173ffffffffffffffffffffffffffffffffffffffff16036113b8576040517f08c379a00000000000000000000000000000000000000000000000000000000081526004016113af9061286d565b60405180910390fd5b6113c181611442565b50565b6113cc611506565b73ffffffffffffffffffffffffffffffffffffffff166113ea610d2d565b73ffffffffffffffffffffffffffffffffffffffff1614611440576040517f08c379a0000000000000000000000000000000000000000000000000000000008152600401611437906128d9565b60405180910390fd5b565b60008060009054906101000a900473ffffffffffffffffffffffffffffffffffffffff169050816000806101000a81548173ffffffffffffffffffffffffffffffffffffffff021916908373ffffffffffffffffffffffffffffffffffffffff1602179055508173ffffffffffffffffffffffffffffffffffffffff168173ffffffffffffffffffffffffffffffffffffffff167f8be0079c531659141344cd1fd0a4f28419497f9722a3daafe3b4186f6b6457e060405160405180910390a35050565b600033905090565b828054828255906000526020600020908101928215611556579160200282015b828111156115555782518290816115459190612477565b509160200191906001019061152e565b5b5090506115639190611567565b5090565b5b80821115611587576000818161157e919061158b565b50600101611568565b5090565b50805461159790611fe1565b6000825580601f106115a957506115c8565b601f0160209004906000526020600020908101906115c791906115cb565b5b50565b5b808211156115e45760008160009055506001016115cc565b5090565b6000604051905090565b600080fd5b600080fd5b6000819050919050565b61160f816115fc565b811461161a57600080fd5b50565b60008135905061162c81611606565b92915050565b600060208284031215611648576116476115f2565b5b60006116568482850161161d565b91505092915050565b611668816115fc565b82525050565b600073ffffffffffffffffffffffffffffffffffffffff82169050919050565b60006116998261166e565b9050919050565b6116a98161168e565b82525050565b600081519050919050565b600082825260208201905092915050565b60005b838110156116e95780820151818401526020810190506116ce565b60008484015250505050565b6000601f19601f8301169050919050565b6000611711826116af565b61171b81856116ba565b935061172b8185602086016116cb565b611734816116f5565b840191505092915050565b7f4e487b7100000000000000000000000000000000000000000000000000000000600052602160045260246000fd5b6006811061177f5761177e61173f565b5b50565b60008190506117908261176e565b919050565b60006117a082611782565b9050919050565b6117b081611795565b82525050565b6000610100820190506117cc600083018b61165f565b6117d9602083018a6116a0565b81810360408301526117eb8189611706565b905081810360608301526117ff8188611706565b905061180e608083018761165f565b61181b60a083018661165f565b61182860c083018561165f565b61183560e08301846117a7565b9998505050505050505050565b61184b8161168e565b811461185657600080fd5b50565b60008135905061186881611842565b92915050565b600060208284031215611884576118836115f2565b5b600061189284828501611859565b91505092915050565b6000819050919050565b6118ae8161189b565b82525050565b60008115159050919050565b6118c9816118b4565b82525050565b600060c0820190506118e460008301896116a0565b6118f160208301886118a5565b81810360408301526119038187611706565b905081810360608301526119178186611706565b9050611926608083018561165f565b61193360a08301846118c0565b979650505050505050565b60008060408385031215611955576119546115f2565b5b60006119638582860161161d565b92505060206119748582860161161d565b9150509250929050565b6000602082019050611993600083018461165f565b92915050565b6119a28161189b565b81146119ad57600080fd5b50565b6000813590506119bf81611999565b92915050565b600080fd5b600080fd5b7f4e487b7100000000000000000000000000000000000000000000000000000000600052604160045260246000fd5b611a07826116f5565b810181811067ffffffffffffffff82111715611a2657611a256119cf565b5b80604052505050565b6000611a396115e8565b9050611a4582826119fe565b919050565b600067ffffffffffffffff821115611a6557611a646119cf565b5b611a6e826116f5565b9050602081019050919050565b82818337600083830152505050565b6000611a9d611a9884611a4a565b611a2f565b905082815260208101848484011115611ab957611ab86119ca565b5b611ac4848285611a7b565b509392505050565b600082601f830112611ae157611ae06119c5565b5b8135611af1848260208601611a8a565b91505092915050565b600067ffffffffffffffff821115611b1557611b146119cf565b5b602082029050602081019050919050565b600080fd5b6000611b3e611b3984611afa565b611a2f565b90508083825260208201905060208402830185811115611b6157611b60611b26565b5b835b81811015611ba857803567ffffffffffffffff811115611b8657611b856119c5565b5b808601611b938982611acc565b85526020850194505050602081019050611b63565b5050509392505050565b600082601f830112611bc757611bc66119c5565b5b8135611bd7848260208601611b2b565b91505092915050565b60008060008060808587031215611bfa57611bf96115f2565b5b6000611c08878288016119b0565b945050602085013567ffffffffffffffff811115611c2957611c286115f7565b5b611c3587828801611acc565b935050604085013567ffffffffffffffff811115611c5657611c556115f7565b5b611c6287828801611acc565b925050606085013567ffffffffffffffff811115611c8357611c826115f7565b5b611c8f87828801611bb2565b91505092959194509250565b600081519050919050565b600082825260208201905092915050565b6000819050602082019050919050565b611cd0816115fc565b82525050565b6000611ce28383611cc7565b60208301905092915050565b6000602082019050919050565b6000611d0682611c9b565b611d108185611ca6565b9350611d1b83611cb7565b8060005b83811015611d4c578151611d338882611cd6565b9750611d3e83611cee565b925050600181019050611d1f565b5085935050505092915050565b60006020820190508181036000830152611d738184611cfb565b905092915050565b6000602082019050611d9060008301846116a0565b92915050565b60008060408385031215611dad57611dac6115f2565b5b6000611dbb85828601611859565b9250506020611dcc8582860161161d565b9150509250929050565b600067ffffffffffffffff821115611df157611df06119cf565b5b602082029050602081019050919050565b6000611e15611e1084611dd6565b611a2f565b90508083825260208201905060208402830185811115611e3857611e37611b26565b5b835b81811015611e615780611e4d888261161d565b845260208401935050602081019050611e3a565b5050509392505050565b600082601f830112611e8057611e7f6119c5565b5b8135611e90848260208601611e02565b91505092915050565b60008060008060008060c08789031215611eb657611eb56115f2565b5b600087013567ffffffffffffffff811115611ed457611ed36115f7565b5b611ee089828a01611acc565b965050602087013567ffffffffffffffff811115611f0157611f006115f7565b5b611f0d89828a01611acc565b9550506040611f1e89828a0161161d565b945050606087013567ffffffffffffffff811115611f3f57611f3e6115f7565b5b611f4b89828a01611bb2565b935050608087013567ffffffffffffffff811115611f6c57611f6b6115f7565b5b611f7889828a01611e6b565b92505060a087013567ffffffffffffffff811115611f9957611f986115f7565b5b611fa589828a01611e6b565b9150509295509295509295565b7f4e487b7100000000000000000000000000000000000000000000000000000000600052602260045260246000fd5b60006002820490506001821680611ff957607f821691505b60208210810361200c5761200b611fb2565b5b50919050565b7f4f6e6c7920726573656172636865722063616e207375626d6974206d696c657360008201527f746f6e6500000000000000000000000000000000000000000000000000000000602082015250565b600061206e6024836116ba565b915061207982612012565b604082019050919050565b6000602082019050818103600083015261209d81612061565b9050919050565b7f496e76616c6964206d696c6573746f6e65000000000000000000000000000000600082015250565b60006120da6011836116ba565b91506120e5826120a4565b602082019050919050565b60006020820190508181036000830152612109816120cd565b9050919050565b7f4d696c6573746f6e6520616c726561647920636f6d706c657465640000000000600082015250565b6000612146601b836116ba565b915061215182612110565b602082019050919050565b6000602082019050818103600083015261217581612139565b9050919050565b7f4d696c6573746f6e6520646561646c696e652070617373656400000000000000600082015250565b60006121b26019836116ba565b91506121bd8261217c565b602082019050919050565b600060208201905081810360008301526121e1816121a5565b9050919050565b7f4e487b7100000000000000000000000000000000000000000000000000000000600052601160045260246000fd5b6000612222826115fc565b91507fffffffffffffffffffffffffffffffffffffffffffffffffffffffffffffffff8203612254576122536121e8565b5b600182019050919050565b7f5265736561726368657220616c72656164792072656769737465726564000000600082015250565b6000612295601d836116ba565b91506122a08261225f565b602082019050919050565b600060208201905081810360008301526122c481612288565b9050919050565b60008190508160005260206000209050919050565b60006020601f8301049050919050565b600082821b905092915050565b60006008830261232d7fffffffffffffffffffffffffffffffffffffffffffffffffffffffffffffffff826122f0565b61233786836122f0565b95508019841693508086168417925050509392505050565b6000819050919050565b600061237461236f61236a846115fc565b61234f565b6115fc565b9050919050565b6000819050919050565b61238e83612359565b6123a261239a8261237b565b8484546122fd565b825550505050565b600090565b6123b76123aa565b6123c2818484612385565b505050565b5b818110156123e6576123db6000826123af565b6001810190506123c8565b5050565b601f82111561242b576123fc816122cb565b612405846122e0565b81016020851015612414578190505b612428612420856122e0565b8301826123c7565b50505b505050565b600082821c905092915050565b600061244e60001984600802612430565b1980831691505092915050565b6000612467838361243d565b9150826002028217905092915050565b612480826116af565b67ffffffffffffffff811115612499576124986119cf565b5b6124a38254611fe1565b6124ae8282856123ea565b600060209050601f8311600181146124e157600084156124cf578287015190505b6124d9858261245b565b865550612541565b601f1984166124ef866122cb565b60005b82811015612517578489015182556001820191506020850194506020810190506124f2565b868310156125345784890151612530601f89168261243d565b8355505b6001600288020188555050505b505050505050565b600060208201905061255e60008301846118a5565b92915050565b7f52657365617263686572206e6f74207265676973746572656400000000000000600082015250565b600061259a6019836116ba565b91506125a582612564565b602082019050919050565b600060208201905081810360008301526125c98161258d565b9050919050565b7f546f6f206d616e79206d696c6573746f6e657300000000000000000000000000600082015250565b60006126066013836116ba565b9150612611826125d0565b602082019050919050565b60006020820190508181036000830152612635816125f9565b9050919050565b7f46756e64696e6720616d6f756e7420746f6f206c6f7700000000000000000000600082015250565b60006126726016836116ba565b915061267d8261263c565b602082019050919050565b600060208201905081810360008301526126a181612665565b9050919050565b7f4e487b7100000000000000000000000000000000000000000000000000000000600052603260045260246000fd5b7f50726f706f73616c206e6f7420617661696c61626c6520666f722066756e646960008201527f6e67000000000000000000000000000000000000000000000000000000000000602082015250565b60006127336022836116ba565b915061273e826126d7565b604082019050919050565b6000602082019050818103600083015261276281612726565b9050919050565b7f46756e64696e6720616d6f756e74206d7573742062652067726561746572207460008201527f68616e2030000000000000000000000000000000000000000000000000000000602082015250565b60006127c56025836116ba565b91506127d082612769565b604082019050919050565b600060208201905081810360008301526127f4816127b8565b9050919050565b7f4f776e61626c653a206e6577206f776e657220697320746865207a65726f206160008201527f6464726573730000000000000000000000000000000000000000000000000000602082015250565b60006128576026836116ba565b9150612862826127fb565b604082019050919050565b600060208201905081810360008301526128868161284a565b9050919050565b7f4f776e61626c653a2063616c6c6572206973206e6f7420746865206f776e6572600082015250565b60006128c36020836116ba565b91506128ce8261288d565b602082019050919050565b600060208201905081810360008301526128f2816128b6565b905091905056fea2646970667358221220ad7c3f3bfb1310b8b5858cad5aedfab90b148e7a9aa9682937acb44b8f6eea3664736f6c63430008140033","opcodes":"PUSH1 0x80 PUSH1 0x40 MSTORE CALLVALUE DUP1 ISZERO PUSH3 0x11 JUMPI PUSH1 0x0 DUP1 REVERT JUMPDEST POP PUSH3 0x32 PUSH3 0x26 PUSH3 0x3F PUSH1 0x20 SHL PUSH1 0x20 SHR JUMP JUMPDEST PUSH3 0x47 PUSH1 0x20 SHL PUSH1 0x20 SHR JUMP JUMPDEST PUSH1 0x1 DUP1 DUP2 SWAP1 SSTORE POP PUSH3 0x10B JUMP JUMPDEST PUSH1 0x0 CALLER SWAP1 POP SWAP1 JUMP JUMPDEST PUSH1 0x0 DUP1 PUSH1 0x0 SWAP1 SLOAD SWAP1 PUSH2 0x100 EXP SWAP1 DIV PUSH20 0xFFFFFFFFFFFFFFFFFFFFFFFFFFFFFFFFFFFFFFFF AND SWAP1 POP DUP2 PUSH1 0x0 DUP1 PUSH2 0x100 EXP DUP2 SLOAD DUP2 PUSH20 0xFFFFFFFFFFFFFFFFFFFFFFFFFFFFFFFFFFFFFFFF MUL NOT AND SWAP1 DUP4 PUSH20 0xFFFFFFFFFFFFFFFFFFFFFFFFFFFFFFFFFFFFFFFF AND MUL OR SWAP1 SSTORE POP DUP2 PUSH20 0xFFFFFFFFFFFFFFFFFFFFFFFFFFFFFFFFFFFFFFFF AND DUP2 PUSH20 0xFFFFFFFFFFFFFFFFFFFFFFFFFFFFFFFFFFFFFFFF AND PUSH32 0x8BE0079C531659141344CD1FD0A4F28419497F9722A3DAAFE3B4186F6B6457E0 PUSH1 0x40 MLOAD PUSH1 0x40 MLOAD DUP1 SWAP2 SUB SWAP1 LOG3 POP POP JUMP JUMPDEST PUSH2 0x292F DUP1 PUSH3 0x11B PUSH1 0x0 CODECOPY PUSH1 0x0 RETURN INVALID PUSH1 0x80 PUSH1 0x40 MSTORE PUSH1 0x4 CALLDATASIZE LT PUSH2 0xF7 JUMPI PUSH1 0x0 CALLDATALOAD PUSH1 0xE0 SHR DUP1 PUSH4 0x715018A6 GT PUSH2 0x8A JUMPI DUP1 PUSH4 0xAD462BA1 GT PUSH2 0x59 JUMPI DUP1 PUSH4 0xAD462BA1 EQ PUSH2 0x32D JUMPI DUP1 PUSH4 0xD2A7D38A EQ PUSH2 0x356 JUMPI DUP1 PUSH4 0xE210F4B5 EQ PUSH2 0x381 JUMPI DUP1 PUSH4 0xF2FDE38B EQ PUSH2 0x39D JUMPI PUSH2 0xFE JUMP JUMPDEST DUP1 PUSH4 0x715018A6 EQ PUSH2 0x285 JUMPI DUP1 PUSH4 0x73FD653D EQ PUSH2 0x29C JUMPI DUP1 PUSH4 0x8DA5CB5B EQ PUSH2 0x2C5 JUMPI DUP1 PUSH4 0xA1C92B9A EQ PUSH2 0x2F0 JUMPI PUSH2 0xFE JUMP JUMPDEST DUP1 PUSH4 0x24600FC3 GT PUSH2 0xC6 JUMPI DUP1 PUSH4 0x24600FC3 EQ PUSH2 0x1DD JUMPI DUP1 PUSH4 0x398642DC EQ PUSH2 0x1F4 JUMPI DUP1 PUSH4 0x4C05ABEB EQ PUSH2 0x21D JUMPI DUP1 PUSH4 0x56046B1A EQ PUSH2 0x248 JUMPI PUSH2 0xFE JUMP JUMPDEST DUP1 PUSH4 0x13CF08B EQ PUSH2 0x103 JUMPI DUP1 PUSH4 0x1BC237D EQ PUSH2 0x147 JUMPI DUP1 PUSH4 0x875B784 EQ PUSH2 0x189 JUMPI DUP1 PUSH4 0xC0512E9 EQ PUSH2 0x1B2 JUMPI PUSH2 0xFE JUMP JUMPDEST CALLDATASIZE PUSH2 0xFE JUMPI STOP JUMPDEST PUSH1 0x0 DUP1 REVERT JUMPDEST CALLVALUE DUP1 ISZERO PUSH2 0x10F JUMPI PUSH1 0x0 DUP1 REVERT JUMPDEST POP PUSH2 0x12A PUSH1 0x4 DUP1 CALLDATASIZE SUB DUP2 ADD SWAP1 PUSH2 0x125 SWAP2 SWAP1 PUSH2 0x1632 JUMP JUMPDEST PUSH2 0x3C6 JUMP JUMPDEST PUSH1 0x40 MLOAD PUSH2 0x13E SWAP9 SWAP8 SWAP7 SWAP6 SWAP5 SWAP4 SWAP3 SWAP2 SWAP1 PUSH2 0x17B6 JUMP JUMPDEST PUSH1 0x40 MLOAD DUP1 SWAP2 SUB SWAP1 RETURN JUMPDEST CALLVALUE DUP1 ISZERO PUSH2 0x153 JUMPI PUSH1 0x0 DUP1 REVERT JUMPDEST POP PUSH2 0x16E PUSH1 0x4 DUP1 CALLDATASIZE SUB DUP2 ADD SWAP1 PUSH2 0x169 SWAP2 SWAP1 PUSH2 0x186E JUMP JUMPDEST PUSH2 0x54B JUMP JUMPDEST PUSH1 0x40 MLOAD PUSH2 0x180 SWAP7 SWAP6 SWAP5 SWAP4 SWAP3 SWAP2 SWAP1 PUSH2 0x18CF JUMP JUMPDEST PUSH1 0x40 MLOAD DUP1 SWAP2 SUB SWAP1 RETURN JUMPDEST CALLVALUE DUP1 ISZERO PUSH2 0x195 JUMPI PUSH1 0x0 DUP1 REVERT JUMPDEST POP PUSH2 0x1B0 PUSH1 0x4 DUP1 CALLDATASIZE SUB DUP2 ADD SWAP1 PUSH2 0x1AB SWAP2 SWAP1 PUSH2 0x193E JUMP JUMPDEST PUSH2 0x6C4 JUMP JUMPDEST STOP JUMPDEST CALLVALUE DUP1 ISZERO PUSH2 0x1BE JUMPI PUSH1 0x0 DUP1 REVERT JUMPDEST POP PUSH2 0x1C7 PUSH2 0x99A JUMP JUMPDEST PUSH1 0x40 MLOAD PUSH2 0x1D4 SWAP2 SWAP1 PUSH2 0x197E JUMP JUMPDEST PUSH1 0x40 MLOAD DUP1 SWAP2 SUB SWAP1 RETURN JUMPDEST CALLVALUE DUP1 ISZERO PUSH2 0x1E9 JUMPI PUSH1 0x0 DUP1 REVERT JUMPDEST POP PUSH2 0x1F2 PUSH2 0x9A0 JUMP JUMPDEST STOP JUMPDEST CALLVALUE DUP1 ISZERO PUSH2 0x200 JUMPI PUSH1 0x0 DUP1 REVERT JUMPDEST POP PUSH2 0x21B PUSH1 0x4 DUP1 CALLDATASIZE SUB DUP2 ADD SWAP1 PUSH2 0x216 SWAP2 SWAP1 PUSH2 0x1BE0 JUMP JUMPDEST PUSH2 0x9F8 JUMP JUMPDEST STOP JUMPDEST CALLVALUE DUP1 ISZERO PUSH2 0x229 JUMPI PUSH1 0x0 DUP1 REVERT JUMPDEST POP PUSH2 0x232 PUSH2 0xC11 JUMP JUMPDEST PUSH1 0x40 MLOAD PUSH2 0x23F SWAP2 SWAP1 PUSH2 0x197E JUMP JUMPDEST PUSH1 0x40 MLOAD DUP1 SWAP2 SUB SWAP1 RETURN JUMPDEST CALLVALUE DUP1 ISZERO PUSH2 0x254 JUMPI PUSH1 0x0 DUP1 REVERT JUMPDEST POP PUSH2 0x26F PUSH1 0x4 DUP1 CALLDATASIZE SUB DUP2 ADD SWAP1 PUSH2 0x26A SWAP2 SWAP1 PUSH2 0x186E JUMP JUMPDEST PUSH2 0xC16 JUMP JUMPDEST PUSH1 0x40 MLOAD PUSH2 0x27C SWAP2 SWAP1 PUSH2 0x1D59 JUMP JUMPDEST PUSH1 0x40 MLOAD DUP1 SWAP2 SUB SWAP1 RETURN JUMPDEST CALLVALUE DUP1 ISZERO PUSH2 0x291 JUMPI PUSH1 0x0 DUP1 REVERT JUMPDEST POP PUSH2 0x29A PUSH2 0xCAD JUMP JUMPDEST STOP JUMPDEST CALLVALUE DUP1 ISZERO PUSH2 0x2A8 JUMPI PUSH1 0x0 DUP1 REVERT JUMPDEST POP PUSH2 0x2C3 PUSH1 0x4 DUP1 CALLDATASIZE SUB DUP2 ADD SWAP1 PUSH2 0x2BE SWAP2 SWAP1 PUSH2 0x186E JUMP JUMPDEST PUSH2 0xCC1 JUMP JUMPDEST STOP JUMPDEST CALLVALUE DUP1 ISZERO PUSH2 0x2D1 JUMPI PUSH1 0x0 DUP1 REVERT JUMPDEST POP PUSH2 0x2DA PUSH2 0xD2D JUMP JUMPDEST PUSH1 0x40 MLOAD PUSH2 0x2E7 SWAP2 SWAP1 PUSH2 0x1D7B JUMP JUMPDEST PUSH1 0x40 MLOAD DUP1 SWAP2 SUB SWAP1 RETURN JUMPDEST CALLVALUE DUP1 ISZERO PUSH2 0x2FC JUMPI PUSH1 0x0 DUP1 REVERT JUMPDEST POP PUSH2 0x317 PUSH1 0x4 DUP1 CALLDATASIZE SUB DUP2 ADD SWAP1 PUSH2 0x312 SWAP2 SWAP1 PUSH2 0x1D96 JUMP JUMPDEST PUSH2 0xD56 JUMP JUMPDEST PUSH1 0x40 MLOAD PUSH2 0x324 SWAP2 SWAP1 PUSH2 0x197E JUMP JUMPDEST PUSH1 0x40 MLOAD DUP1 SWAP2 SUB SWAP1 RETURN JUMPDEST CALLVALUE DUP1 ISZERO PUSH2 0x339 JUMPI PUSH1 0x0 DUP1 REVERT JUMPDEST POP PUSH2 0x354 PUSH1 0x4 DUP1 CALLDATASIZE SUB DUP2 ADD SWAP1 PUSH2 0x34F SWAP2 SWAP1 PUSH2 0x1E99 JUMP JUMPDEST PUSH2 0xD87 JUMP JUMPDEST STOP JUMPDEST CALLVALUE DUP1 ISZERO PUSH2 0x362 JUMPI PUSH1 0x0 DUP1 REVERT JUMPDEST POP PUSH2 0x36B PUSH2 0x1172 JUMP JUMPDEST PUSH1 0x40 MLOAD PUSH2 0x378 SWAP2 SWAP1 PUSH2 0x197E JUMP JUMPDEST PUSH1 0x40 MLOAD DUP1 SWAP2 SUB SWAP1 RETURN JUMPDEST PUSH2 0x39B PUSH1 0x4 DUP1 CALLDATASIZE SUB DUP2 ADD SWAP1 PUSH2 0x396 SWAP2 SWAP1 PUSH2 0x1632 JUMP JUMPDEST PUSH2 0x117E JUMP JUMPDEST STOP JUMPDEST CALLVALUE DUP1 ISZERO PUSH2 0x3A9 JUMPI PUSH1 0x0 DUP1 REVERT JUMPDEST POP PUSH2 0x3C4 PUSH1 0x4 DUP1 CALLDATASIZE SUB DUP2 ADD SWAP1 PUSH2 0x3BF SWAP2 SWAP1 PUSH2 0x186E JUMP JUMPDEST PUSH2 0x1341 JUMP JUMPDEST STOP JUMPDEST PUSH1 0x3 PUSH1 0x20 MSTORE DUP1 PUSH1 0x0 MSTORE PUSH1 0x40 PUSH1 0x0 KECCAK256 PUSH1 0x0 SWAP2 POP SWAP1 POP DUP1 PUSH1 0x0 ADD SLOAD SWAP1 DUP1 PUSH1 0x1 ADD PUSH1 0x0 SWAP1 SLOAD SWAP1 PUSH2 0x100 EXP SWAP1 DIV PUSH20 0xFFFFFFFFFFFFFFFFFFFFFFFFFFFFFFFFFFFFFFFF AND SWAP1 DUP1 PUSH1 0x2 ADD DUP1 SLOAD PUSH2 0x415 SWAP1 PUSH2 0x1FE1 JUMP JUMPDEST DUP1 PUSH1 0x1F ADD PUSH1 0x20 DUP1 SWAP2 DIV MUL PUSH1 0x20 ADD PUSH1 0x40 MLOAD SWAP1 DUP2 ADD PUSH1 0x40 MSTORE DUP1 SWAP3 SWAP2 SWAP1 DUP2 DUP2 MSTORE PUSH1 0x20 ADD DUP3 DUP1 SLOAD PUSH2 0x441 SWAP1 PUSH2 0x1FE1 JUMP JUMPDEST DUP1 ISZERO PUSH2 0x48E JUMPI DUP1 PUSH1 0x1F LT PUSH2 0x463 JUMPI PUSH2 0x100 DUP1 DUP4 SLOAD DIV MUL DUP4 MSTORE SWAP2 PUSH1 0x20 ADD SWAP2 PUSH2 0x48E JUMP JUMPDEST DUP3 ADD SWAP2 SWAP1 PUSH1 0x0 MSTORE PUSH1 0x20 PUSH1 0x0 KECCAK256 SWAP1 JUMPDEST DUP2 SLOAD DUP2 MSTORE SWAP1 PUSH1 0x1 ADD SWAP1 PUSH1 0x20 ADD DUP1 DUP4 GT PUSH2 0x471 JUMPI DUP3 SWAP1 SUB PUSH1 0x1F AND DUP3 ADD SWAP2 JUMPDEST POP POP POP POP POP SWAP1 DUP1 PUSH1 0x3 ADD DUP1 SLOAD PUSH2 0x4A3 SWAP1 PUSH2 0x1FE1 JUMP JUMPDEST DUP1 PUSH1 0x1F ADD PUSH1 0x20 DUP1 SWAP2 DIV MUL PUSH1 0x20 ADD PUSH1 0x40 MLOAD SWAP1 DUP2 ADD PUSH1 0x40 MSTORE DUP1 SWAP3 SWAP2 SWAP1 DUP2 DUP2 MSTORE PUSH1 0x20 ADD DUP3 DUP1 SLOAD PUSH2 0x4CF SWAP1 PUSH2 0x1FE1 JUMP JUMPDEST DUP1 ISZERO PUSH2 0x51C JUMPI DUP1 PUSH1 0x1F LT PUSH2 0x4F1 JUMPI PUSH2 0x100 DUP1 DUP4 SLOAD DIV MUL DUP4 MSTORE SWAP2 PUSH1 0x20 ADD SWAP2 PUSH2 0x51C JUMP JUMPDEST DUP3 ADD SWAP2 SWAP1 PUSH1 0x0 MSTORE PUSH1 0x20 PUSH1 0x0 KECCAK256 SWAP1 JUMPDEST DUP2 SLOAD DUP2 MSTORE SWAP1 PUSH1 0x1 ADD SWAP1 PUSH1 0x20 ADD DUP1 DUP4 GT PUSH2 0x4FF JUMPI DUP3 SWAP1 SUB PUSH1 0x1F AND DUP3 ADD SWAP2 JUMPDEST POP POP POP POP POP SWAP1 DUP1 PUSH1 0x4 ADD SLOAD SWAP1 DUP1 PUSH1 0x5 ADD SLOAD SWAP1 DUP1 PUSH1 0x6 ADD SLOAD SWAP1 DUP1 PUSH1 0x7 ADD PUSH1 0x0 SWAP1 SLOAD SWAP1 PUSH2 0x100 EXP SWAP1 DIV PUSH1 0xFF AND SWAP1 POP DUP9 JUMP JUMPDEST PUSH1 0x2 PUSH1 0x20 MSTORE DUP1 PUSH1 0x0 MSTORE PUSH1 0x40 PUSH1 0x0 KECCAK256 PUSH1 0x0 SWAP2 POP SWAP1 POP DUP1 PUSH1 0x0 ADD PUSH1 0x0 SWAP1 SLOAD SWAP1 PUSH2 0x100 EXP SWAP1 DIV PUSH20 0xFFFFFFFFFFFFFFFFFFFFFFFFFFFFFFFFFFFFFFFF AND SWAP1 DUP1 PUSH1 0x1 ADD SLOAD SWAP1 DUP1 PUSH1 0x2 ADD DUP1 SLOAD PUSH2 0x59A SWAP1 PUSH2 0x1FE1 JUMP JUMPDEST DUP1 PUSH1 0x1F ADD PUSH1 0x20 DUP1 SWAP2 DIV MUL PUSH1 0x20 ADD PUSH1 0x40 MLOAD SWAP1 DUP2 ADD PUSH1 0x40 MSTORE DUP1 SWAP3 SWAP2 SWAP1 DUP2 DUP2 MSTORE PUSH1 0x20 ADD DUP3 DUP1 SLOAD PUSH2 0x5C6 SWAP1 PUSH2 0x1FE1 JUMP JUMPDEST DUP1 ISZERO PUSH2 0x613 JUMPI DUP1 PUSH1 0x1F LT PUSH2 0x5E8 JUMPI PUSH2 0x100 DUP1 DUP4 SLOAD DIV MUL DUP4 MSTORE SWAP2 PUSH1 0x20 ADD SWAP2 PUSH2 0x613 JUMP JUMPDEST DUP3 ADD SWAP2 SWAP1 PUSH1 0x0 MSTORE PUSH1 0x20 PUSH1 0x0 KECCAK256 SWAP1 JUMPDEST DUP2 SLOAD DUP2 MSTORE SWAP1 PUSH1 0x1 ADD SWAP1 PUSH1 0x20 ADD DUP1 DUP4 GT PUSH2 0x5F6 JUMPI DUP3 SWAP1 SUB PUSH1 0x1F AND DUP3 ADD SWAP2 JUMPDEST POP POP POP POP POP SWAP1 DUP1 PUSH1 0x3 ADD DUP1 SLOAD PUSH2 0x628 SWAP1 PUSH2 0x1FE1 JUMP JUMPDEST DUP1 PUSH1 0x1F ADD PUSH1 0x20 DUP1 SWAP2 DIV MUL PUSH1 0x20 ADD PUSH1 0x40 MLOAD SWAP1 DUP2 ADD PUSH1 0x40 MSTORE DUP1 SWAP3 SWAP2 SWAP1 DUP2 DUP2 MSTORE PUSH1 0x20 ADD DUP3 DUP1 SLOAD PUSH2 0x654 SWAP1 PUSH2 0x1FE1 JUMP JUMPDEST DUP1 ISZERO PUSH2 0x6A1 JUMPI DUP1 PUSH1 0x1F LT PUSH2 0x676 JUMPI PUSH2 0x100 DUP1 DUP4 SLOAD DIV MUL DUP4 MSTORE SWAP2 PUSH1 0x20 ADD SWAP2 PUSH2 0x6A1 JUMP JUMPDEST DUP3 ADD SWAP2 SWAP1 PUSH1 0x0 MSTORE PUSH1 0x20 PUSH1 0x0 KECCAK256 SWAP1 JUMPDEST DUP2 SLOAD DUP2 MSTORE SWAP1 PUSH1 0x1 ADD SWAP1 PUSH1 0x20 ADD DUP1 DUP4 GT PUSH2 0x684 JUMPI DUP3 SWAP1 SUB PUSH1 0x1F AND DUP3 ADD SWAP2 JUMPDEST POP POP POP POP POP SWAP1 DUP1 PUSH1 0x5 ADD SLOAD SWAP1 DUP1 PUSH1 0x6 ADD PUSH1 0x0 SWAP1 SLOAD SWAP1 PUSH2 0x100 EXP SWAP1 DIV PUSH1 0xFF AND SWAP1 POP DUP7 JUMP JUMPDEST PUSH1 0x0 PUSH1 0x3 PUSH1 0x0 DUP5 DUP2 MSTORE PUSH1 0x20 ADD SWAP1 DUP2 MSTORE PUSH1 0x20 ADD PUSH1 0x0 KECCAK256 SWAP1 POP CALLER PUSH20 0xFFFFFFFFFFFFFFFFFFFFFFFFFFFFFFFFFFFFFFFF AND DUP2 PUSH1 0x1 ADD PUSH1 0x0 SWAP1 SLOAD SWAP1 PUSH2 0x100 EXP SWAP1 DIV PUSH20 0xFFFFFFFFFFFFFFFFFFFFFFFFFFFFFFFFFFFFFFFF AND PUSH20 0xFFFFFFFFFFFFFFFFFFFFFFFFFFFFFFFFFFFFFFFF AND EQ PUSH2 0x76D JUMPI PUSH1 0x40 MLOAD PUSH32 0x8C379A000000000000000000000000000000000000000000000000000000000 DUP2 MSTORE PUSH1 0x4 ADD PUSH2 0x764 SWAP1 PUSH2 0x2084 JUMP JUMPDEST PUSH1 0x40 MLOAD DUP1 SWAP2 SUB SWAP1 REVERT JUMPDEST DUP1 PUSH1 0x5 ADD SLOAD DUP3 LT PUSH2 0x7B3 JUMPI PUSH1 0x40 MLOAD PUSH32 0x8C379A000000000000000000000000000000000000000000000000000000000 DUP2 MSTORE PUSH1 0x4 ADD PUSH2 0x7AA SWAP1 PUSH2 0x20F0 JUMP JUMPDEST PUSH1 0x40 MLOAD DUP1 SWAP2 SUB SWAP1 REVERT JUMPDEST PUSH1 0x0 DUP2 PUSH1 0x9 ADD PUSH1 0x0 DUP5 DUP2 MSTORE PUSH1 0x20 ADD SWAP1 DUP2 MSTORE PUSH1 0x20 ADD PUSH1 0x0 KECCAK256 SWAP1 POP DUP1 PUSH1 0x2 ADD PUSH1 0x0 SWAP1 SLOAD SWAP1 PUSH2 0x100 EXP SWAP1 DIV PUSH1 0xFF AND ISZERO PUSH2 0x81E JUMPI PUSH1 0x40 MLOAD PUSH32 0x8C379A000000000000000000000000000000000000000000000000000000000 DUP2 MSTORE PUSH1 0x4 ADD PUSH2 0x815 SWAP1 PUSH2 0x215C JUMP JUMPDEST PUSH1 0x40 MLOAD DUP1 SWAP2 SUB SWAP1 REVERT JUMPDEST DUP1 PUSH1 0x3 ADD SLOAD TIMESTAMP GT ISZERO PUSH2 0x865 JUMPI PUSH1 0x40 MLOAD PUSH32 0x8C379A000000000000000000000000000000000000000000000000000000000 DUP2 MSTORE PUSH1 0x4 ADD PUSH2 0x85C SWAP1 PUSH2 0x21C8 JUMP JUMPDEST PUSH1 0x40 MLOAD DUP1 SWAP2 SUB SWAP1 REVERT JUMPDEST PUSH1 0x1 DUP2 PUSH1 0x2 ADD PUSH1 0x0 PUSH2 0x100 EXP DUP2 SLOAD DUP2 PUSH1 0xFF MUL NOT AND SWAP1 DUP4 ISZERO ISZERO MUL OR SWAP1 SSTORE POP DUP2 PUSH1 0x6 ADD PUSH1 0x0 DUP2 SLOAD DUP1 SWAP3 SWAP2 SWAP1 PUSH2 0x897 SWAP1 PUSH2 0x2217 JUMP JUMPDEST SWAP2 SWAP1 POP SSTORE POP DUP2 PUSH1 0x5 ADD SLOAD DUP3 PUSH1 0x6 ADD SLOAD SUB PUSH2 0x8D9 JUMPI PUSH1 0x4 DUP3 PUSH1 0x7 ADD PUSH1 0x0 PUSH2 0x100 EXP DUP2 SLOAD DUP2 PUSH1 0xFF MUL NOT AND SWAP1 DUP4 PUSH1 0x5 DUP2 GT ISZERO PUSH2 0x8D3 JUMPI PUSH2 0x8D2 PUSH2 0x173F JUMP JUMPDEST JUMPDEST MUL OR SWAP1 SSTORE POP JUMPDEST CALLER PUSH20 0xFFFFFFFFFFFFFFFFFFFFFFFFFFFFFFFFFFFFFFFF AND PUSH2 0x8FC DUP3 PUSH1 0x1 ADD SLOAD SWAP1 DUP2 ISZERO MUL SWAP1 PUSH1 0x40 MLOAD PUSH1 0x0 PUSH1 0x40 MLOAD DUP1 DUP4 SUB DUP2 DUP6 DUP9 DUP9 CALL SWAP4 POP POP POP POP ISZERO DUP1 ISZERO PUSH2 0x923 JUMPI RETURNDATASIZE PUSH1 0x0 DUP1 RETURNDATACOPY RETURNDATASIZE PUSH1 0x0 REVERT JUMPDEST POP DUP4 PUSH32 0x26CF581E2709E0615164AF15A371B2DD10FB48D5BAED91E9EACD557633C16BCB DUP5 PUSH1 0x40 MLOAD PUSH2 0x954 SWAP2 SWAP1 PUSH2 0x197E JUMP JUMPDEST PUSH1 0x40 MLOAD DUP1 SWAP2 SUB SWAP1 LOG2 DUP4 PUSH32 0x939DA3B627C123C81FE5AACEBF925163337A0D4F8A03724640618078CAD24894 DUP5 PUSH1 0x40 MLOAD PUSH2 0x98C SWAP2 SWAP1 PUSH2 0x197E JUMP JUMPDEST PUSH1 0x40 MLOAD DUP1 SWAP2 SUB SWAP1 LOG2 POP POP POP POP JUMP JUMPDEST PUSH1 0x5 SLOAD DUP2 JUMP JUMPDEST PUSH2 0x9A8 PUSH2 0x13C4 JUMP JUMPDEST PUSH2 0x9B0 PUSH2 0xD2D JUMP JUMPDEST PUSH20 0xFFFFFFFFFFFFFFFFFFFFFFFFFFFFFFFFFFFFFFFF AND PUSH2 0x8FC SELFBALANCE SWAP1 DUP2 ISZERO MUL SWAP1 PUSH1 0x40 MLOAD PUSH1 0x0 PUSH1 0x40 MLOAD DUP1 DUP4 SUB DUP2 DUP6 DUP9 DUP9 CALL SWAP4 POP POP POP POP ISZERO DUP1 ISZERO PUSH2 0x9F5 JUMPI RETURNDATASIZE PUSH1 0x0 DUP1 RETURNDATACOPY RETURNDATASIZE PUSH1 0x0 REVERT JUMPDEST POP JUMP JUMPDEST PUSH1 0x0 PUSH20 0xFFFFFFFFFFFFFFFFFFFFFFFFFFFFFFFFFFFFFFFF AND PUSH1 0x2 PUSH1 0x0 CALLER PUSH20 0xFFFFFFFFFFFFFFFFFFFFFFFFFFFFFFFFFFFFFFFF AND PUSH20 0xFFFFFFFFFFFFFFFFFFFFFFFFFFFFFFFFFFFFFFFF AND DUP2 MSTORE PUSH1 0x20 ADD SWAP1 DUP2 MSTORE PUSH1 0x20 ADD PUSH1 0x0 KECCAK256 PUSH1 0x0 ADD PUSH1 0x0 SWAP1 SLOAD SWAP1 PUSH2 0x100 EXP SWAP1 DIV PUSH20 0xFFFFFFFFFFFFFFFFFFFFFFFFFFFFFFFFFFFFFFFF AND PUSH20 0xFFFFFFFFFFFFFFFFFFFFFFFFFFFFFFFFFFFFFFFF AND EQ PUSH2 0xAC9 JUMPI PUSH1 0x40 MLOAD PUSH32 0x8C379A000000000000000000000000000000000000000000000000000000000 DUP2 MSTORE PUSH1 0x4 ADD PUSH2 0xAC0 SWAP1 PUSH2 0x22AB JUMP JUMPDEST PUSH1 0x40 MLOAD DUP1 SWAP2 SUB SWAP1 REVERT JUMPDEST PUSH1 0x0 PUSH1 0x2 PUSH1 0x0 CALLER PUSH20 0xFFFFFFFFFFFFFFFFFFFFFFFFFFFFFFFFFFFFFFFF AND PUSH20 0xFFFFFFFFFFFFFFFFFFFFFFFFFFFFFFFFFFFFFFFF AND DUP2 MSTORE PUSH1 0x20 ADD SWAP1 DUP2 MSTORE PUSH1 0x20 ADD PUSH1 0x0 KECCAK256 SWAP1 POP CALLER DUP2 PUSH1 0x0 ADD PUSH1 0x0 PUSH2 0x100 EXP DUP2 SLOAD DUP2 PUSH20 0xFFFFFFFFFFFFFFFFFFFFFFFFFFFFFFFFFFFFFFFF MUL NOT AND SWAP1 DUP4 PUSH20 0xFFFFFFFFFFFFFFFFFFFFFFFFFFFFFFFFFFFFFFFF AND MUL OR SWAP1 SSTORE POP DUP5 DUP2 PUSH1 0x1 ADD DUP2 SWAP1 SSTORE POP DUP4 DUP2 PUSH1 0x2 ADD SWAP1 DUP2 PUSH2 0xB69 SWAP2 SWAP1 PUSH2 0x2477 JUMP JUMPDEST POP DUP3 DUP2 PUSH1 0x3 ADD SWAP1 DUP2 PUSH2 0xB7B SWAP2 SWAP1 PUSH2 0x2477 JUMP JUMPDEST POP DUP2 DUP2 PUSH1 0x4 ADD SWAP1 DUP1 MLOAD SWAP1 PUSH1 0x20 ADD SWAP1 PUSH2 0xB94 SWAP3 SWAP2 SWAP1 PUSH2 0x150E JUMP JUMPDEST POP PUSH1 0x0 DUP2 PUSH1 0x5 ADD DUP2 SWAP1 SSTORE POP PUSH1 0x0 DUP2 PUSH1 0x6 ADD PUSH1 0x0 PUSH2 0x100 EXP DUP2 SLOAD DUP2 PUSH1 0xFF MUL NOT AND SWAP1 DUP4 ISZERO ISZERO MUL OR SWAP1 SSTORE POP CALLER PUSH20 0xFFFFFFFFFFFFFFFFFFFFFFFFFFFFFFFFFFFFFFFF AND PUSH32 0x9C3F960EE20D42D0A3230BB124C6494BB76F712BCFD578F34DDD476ADF1051D2 DUP7 PUSH1 0x40 MLOAD PUSH2 0xC02 SWAP2 SWAP1 PUSH2 0x2549 JUMP JUMPDEST PUSH1 0x40 MLOAD DUP1 SWAP2 SUB SWAP1 LOG2 POP POP POP POP POP JUMP JUMPDEST PUSH1 0x5 DUP2 JUMP JUMPDEST PUSH1 0x60 PUSH1 0x4 PUSH1 0x0 DUP4 PUSH20 0xFFFFFFFFFFFFFFFFFFFFFFFFFFFFFFFFFFFFFFFF AND PUSH20 0xFFFFFFFFFFFFFFFFFFFFFFFFFFFFFFFFFFFFFFFF AND DUP2 MSTORE PUSH1 0x20 ADD SWAP1 DUP2 MSTORE PUSH1 0x20 ADD PUSH1 0x0 KECCAK256 DUP1 SLOAD DUP1 PUSH1 0x20 MUL PUSH1 0x20 ADD PUSH1 0x40 MLOAD SWAP1 DUP2 ADD PUSH1 0x40 MSTORE DUP1 SWAP3 SWAP2 SWAP1 DUP2 DUP2 MSTORE PUSH1 0x20 ADD DUP3 DUP1 SLOAD DUP1 ISZERO PUSH2 0xCA1 JUMPI PUSH1 0x20 MUL DUP3 ADD SWAP2 SWAP1 PUSH1 0x0 MSTORE PUSH1 0x20 PUSH1 0x0 KECCAK256 SWAP1 JUMPDEST DUP2 SLOAD DUP2 MSTORE PUSH1 0x20 ADD SWAP1 PUSH1 0x1 ADD SWAP1 DUP1 DUP4 GT PUSH2 0xC8D JUMPI JUMPDEST POP POP POP POP POP SWAP1 POP SWAP2 SWAP1 POP JUMP JUMPDEST PUSH2 0xCB5 PUSH2 0x13C4 JUMP JUMPDEST PUSH2 0xCBF PUSH1 0x0 PUSH2 0x1442 JUMP JUMPDEST JUMP JUMPDEST PUSH2 0xCC9 PUSH2 0x13C4 JUMP JUMPDEST PUSH1 0x0 PUSH1 0x2 PUSH1 0x0 DUP4 PUSH20 0xFFFFFFFFFFFFFFFFFFFFFFFFFFFFFFFFFFFFFFFF AND PUSH20 0xFFFFFFFFFFFFFFFFFFFFFFFFFFFFFFFFFFFFFFFF AND DUP2 MSTORE PUSH1 0x20 ADD SWAP1 DUP2 MSTORE PUSH1 0x20 ADD PUSH1 0x0 KECCAK256 SWAP1 POP PUSH1 0x1 DUP2 PUSH1 0x6 ADD PUSH1 0x0 PUSH2 0x100 EXP DUP2 SLOAD DUP2 PUSH1 0xFF MUL NOT AND SWAP1 DUP4 ISZERO ISZERO MUL OR SWAP1 SSTORE POP POP POP JUMP JUMPDEST PUSH1 0x0 DUP1 PUSH1 0x0 SWAP1 SLOAD SWAP1 PUSH2 0x100 EXP SWAP1 DIV PUSH20 0xFFFFFFFFFFFFFFFFFFFFFFFFFFFFFFFFFFFFFFFF AND SWAP1 POP SWAP1 JUMP JUMPDEST PUSH1 0x4 PUSH1 0x20 MSTORE DUP2 PUSH1 0x0 MSTORE PUSH1 0x40 PUSH1 0x0 KECCAK256 DUP2 DUP2 SLOAD DUP2 LT PUSH2 0xD72 JUMPI PUSH1 0x0 DUP1 REVERT JUMPDEST SWAP1 PUSH1 0x0 MSTORE PUSH1 0x20 PUSH1 0x0 KECCAK256 ADD PUSH1 0x0 SWAP2 POP SWAP2 POP POP SLOAD DUP2 JUMP JUMPDEST PUSH1 0x0 PUSH20 0xFFFFFFFFFFFFFFFFFFFFFFFFFFFFFFFFFFFFFFFF AND PUSH1 0x2 PUSH1 0x0 CALLER PUSH20 0xFFFFFFFFFFFFFFFFFFFFFFFFFFFFFFFFFFFFFFFF AND PUSH20 0xFFFFFFFFFFFFFFFFFFFFFFFFFFFFFFFFFFFFFFFF AND DUP2 MSTORE PUSH1 0x20 ADD SWAP1 DUP2 MSTORE PUSH1 0x20 ADD PUSH1 0x0 KECCAK256 PUSH1 0x0 ADD PUSH1 0x0 SWAP1 SLOAD SWAP1 PUSH2 0x100 EXP SWAP1 DIV PUSH20 0xFFFFFFFFFFFFFFFFFFFFFFFFFFFFFFFFFFFFFFFF AND PUSH20 0xFFFFFFFFFFFFFFFFFFFFFFFFFFFFFFFFFFFFFFFF AND SUB PUSH2 0xE58 JUMPI PUSH1 0x40 MLOAD PUSH32 0x8C379A000000000000000000000000000000000000000000000000000000000 DUP2 MSTORE PUSH1 0x4 ADD PUSH2 0xE4F SWAP1 PUSH2 0x25B0 JUMP JUMPDEST PUSH1 0x40 MLOAD DUP1 SWAP2 SUB SWAP1 REVERT JUMPDEST PUSH1 0x5 DUP4 MLOAD GT ISZERO PUSH2 0xE9D JUMPI PUSH1 0x40 MLOAD PUSH32 0x8C379A000000000000000000000000000000000000000000000000000000000 DUP2 MSTORE PUSH1 0x4 ADD PUSH2 0xE94 SWAP1 PUSH2 0x261C JUMP JUMPDEST PUSH1 0x40 MLOAD DUP1 SWAP2 SUB SWAP1 REVERT JUMPDEST PUSH8 0x16345785D8A0000 DUP5 LT ISZERO PUSH2 0xEE8 JUMPI PUSH1 0x40 MLOAD PUSH32 0x8C379A000000000000000000000000000000000000000000000000000000000 DUP2 MSTORE PUSH1 0x4 ADD PUSH2 0xEDF SWAP1 PUSH2 0x2688 JUMP JUMPDEST PUSH1 0x40 MLOAD DUP1 SWAP2 SUB SWAP1 REVERT JUMPDEST PUSH1 0x0 PUSH1 0x5 PUSH1 0x0 DUP2 SLOAD DUP1 SWAP3 SWAP2 SWAP1 PUSH2 0xEFD SWAP1 PUSH2 0x2217 JUMP JUMPDEST SWAP2 SWAP1 POP SSTORE SWAP1 POP PUSH1 0x0 PUSH1 0x3 PUSH1 0x0 DUP4 DUP2 MSTORE PUSH1 0x20 ADD SWAP1 DUP2 MSTORE PUSH1 0x20 ADD PUSH1 0x0 KECCAK256 SWAP1 POP DUP2 DUP2 PUSH1 0x0 ADD DUP2 SWAP1 SSTORE POP CALLER DUP2 PUSH1 0x1 ADD PUSH1 0x0 PUSH2 0x100 EXP DUP2 SLOAD DUP2 PUSH20 0xFFFFFFFFFFFFFFFFFFFFFFFFFFFFFFFFFFFFFFFF MUL NOT AND SWAP1 DUP4 PUSH20 0xFFFFFFFFFFFFFFFFFFFFFFFFFFFFFFFFFFFFFFFF AND MUL OR SWAP1 SSTORE POP DUP8 DUP2 PUSH1 0x2 ADD SWAP1 DUP2 PUSH2 0xF77 SWAP2 SWAP1 PUSH2 0x2477 JUMP JUMPDEST POP DUP7 DUP2 PUSH1 0x3 ADD SWAP1 DUP2 PUSH2 0xF89 SWAP2 SWAP1 PUSH2 0x2477 JUMP JUMPDEST POP DUP6 DUP2 PUSH1 0x4 ADD DUP2 SWAP1 SSTORE POP PUSH1 0x0 DUP2 PUSH1 0x7 ADD PUSH1 0x0 PUSH2 0x100 EXP DUP2 SLOAD DUP2 PUSH1 0xFF MUL NOT AND SWAP1 DUP4 PUSH1 0x5 DUP2 GT ISZERO PUSH2 0xFBB JUMPI PUSH2 0xFBA PUSH2 0x173F JUMP JUMPDEST JUMPDEST MUL OR SWAP1 SSTORE POP DUP5 MLOAD DUP2 PUSH1 0x5 ADD DUP2 SWAP1 SSTORE POP PUSH1 0x0 JUMPDEST DUP6 MLOAD DUP2 LT ISZERO PUSH2 0x10BD JUMPI PUSH1 0x40 MLOAD DUP1 PUSH1 0x80 ADD PUSH1 0x40 MSTORE DUP1 DUP8 DUP4 DUP2 MLOAD DUP2 LT PUSH2 0xFF4 JUMPI PUSH2 0xFF3 PUSH2 0x26A8 JUMP JUMPDEST JUMPDEST PUSH1 0x20 MUL PUSH1 0x20 ADD ADD MLOAD DUP2 MSTORE PUSH1 0x20 ADD DUP7 DUP4 DUP2 MLOAD DUP2 LT PUSH2 0x1014 JUMPI PUSH2 0x1013 PUSH2 0x26A8 JUMP JUMPDEST JUMPDEST PUSH1 0x20 MUL PUSH1 0x20 ADD ADD MLOAD DUP2 MSTORE PUSH1 0x20 ADD PUSH1 0x0 ISZERO ISZERO DUP2 MSTORE PUSH1 0x20 ADD DUP6 DUP4 DUP2 MLOAD DUP2 LT PUSH2 0x103D JUMPI PUSH2 0x103C PUSH2 0x26A8 JUMP JUMPDEST JUMPDEST PUSH1 0x20 MUL PUSH1 0x20 ADD ADD MLOAD DUP2 MSTORE POP DUP3 PUSH1 0x9 ADD PUSH1 0x0 DUP4 DUP2 MSTORE PUSH1 0x20 ADD SWAP1 DUP2 MSTORE PUSH1 0x20 ADD PUSH1 0x0 KECCAK256 PUSH1 0x0 DUP3 ADD MLOAD DUP2 PUSH1 0x0 ADD SWAP1 DUP2 PUSH2 0x1072 SWAP2 SWAP1 PUSH2 0x2477 JUMP JUMPDEST POP PUSH1 0x20 DUP3 ADD MLOAD DUP2 PUSH1 0x1 ADD SSTORE PUSH1 0x40 DUP3 ADD MLOAD DUP2 PUSH1 0x2 ADD PUSH1 0x0 PUSH2 0x100 EXP DUP2 SLOAD DUP2 PUSH1 0xFF MUL NOT AND SWAP1 DUP4 ISZERO ISZERO MUL OR SWAP1 SSTORE POP PUSH1 0x60 DUP3 ADD MLOAD DUP2 PUSH1 0x3 ADD SSTORE SWAP1 POP POP DUP1 DUP1 PUSH2 0x10B5 SWAP1 PUSH2 0x2217 JUMP JUMPDEST SWAP2 POP POP PUSH2 0xFCD JUMP JUMPDEST POP PUSH1 0x4 PUSH1 0x0 CALLER PUSH20 0xFFFFFFFFFFFFFFFFFFFFFFFFFFFFFFFFFFFFFFFF AND PUSH20 0xFFFFFFFFFFFFFFFFFFFFFFFFFFFFFFFFFFFFFFFF AND DUP2 MSTORE PUSH1 0x20 ADD SWAP1 DUP2 MSTORE PUSH1 0x20 ADD PUSH1 0x0 KECCAK256 DUP3 SWAP1 DUP1 PUSH1 0x1 DUP2 SLOAD ADD DUP1 DUP3 SSTORE DUP1 SWAP2 POP POP PUSH1 0x1 SWAP1 SUB SWAP1 PUSH1 0x0 MSTORE PUSH1 0x20 PUSH1 0x0 KECCAK256 ADD PUSH1 0x0 SWAP1 SWAP2 SWAP1 SWAP2 SWAP1 SWAP2 POP SSTORE CALLER PUSH20 0xFFFFFFFFFFFFFFFFFFFFFFFFFFFFFFFFFFFFFFFF AND DUP3 PUSH32 0xCD423CC1203C0AF96B9B3D68D73B3064A69DE2D14450BB7181C5E5DF2132B358 PUSH1 0x40 MLOAD PUSH1 0x40 MLOAD DUP1 SWAP2 SUB SWAP1 LOG3 POP POP POP POP POP POP POP POP JUMP JUMPDEST PUSH8 0x16345785D8A0000 DUP2 JUMP JUMPDEST PUSH1 0x0 PUSH1 0x3 PUSH1 0x0 DUP4 DUP2 MSTORE PUSH1 0x20 ADD SWAP1 DUP2 MSTORE PUSH1 0x20 ADD PUSH1 0x0 KECCAK256 SWAP1 POP PUSH1 0x0 PUSH1 0x5 DUP2 GT ISZERO PUSH2 0x11A9 JUMPI PUSH2 0x11A8 PUSH2 0x173F JUMP JUMPDEST JUMPDEST DUP2 PUSH1 0x7 ADD PUSH1 0x0 SWAP1 SLOAD SWAP1 PUSH2 0x100 EXP SWAP1 DIV PUSH1 0xFF AND PUSH1 0x5 DUP2 GT ISZERO PUSH2 0x11CD JUMPI PUSH2 0x11CC PUSH2 0x173F JUMP JUMPDEST JUMPDEST EQ PUSH2 0x120D JUMPI PUSH1 0x40 MLOAD PUSH32 0x8C379A000000000000000000000000000000000000000000000000000000000 DUP2 MSTORE PUSH1 0x4 ADD PUSH2 0x1204 SWAP1 PUSH2 0x2749 JUMP JUMPDEST PUSH1 0x40 MLOAD DUP1 SWAP2 SUB SWAP1 REVERT JUMPDEST PUSH1 0x0 CALLVALUE GT PUSH2 0x1250 JUMPI PUSH1 0x40 MLOAD PUSH32 0x8C379A000000000000000000000000000000000000000000000000000000000 DUP2 MSTORE PUSH1 0x4 ADD PUSH2 0x1247 SWAP1 PUSH2 0x27DB JUMP JUMPDEST PUSH1 0x40 MLOAD DUP1 SWAP2 SUB SWAP1 REVERT JUMPDEST DUP1 PUSH1 0x8 ADD CALLER SWAP1 DUP1 PUSH1 0x1 DUP2 SLOAD ADD DUP1 DUP3 SSTORE DUP1 SWAP2 POP POP PUSH1 0x1 SWAP1 SUB SWAP1 PUSH1 0x0 MSTORE PUSH1 0x20 PUSH1 0x0 KECCAK256 ADD PUSH1 0x0 SWAP1 SWAP2 SWAP1 SWAP2 SWAP1 SWAP2 PUSH2 0x100 EXP DUP2 SLOAD DUP2 PUSH20 0xFFFFFFFFFFFFFFFFFFFFFFFFFFFFFFFFFFFFFFFF MUL NOT AND SWAP1 DUP4 PUSH20 0xFFFFFFFFFFFFFFFFFFFFFFFFFFFFFFFFFFFFFFFF AND MUL OR SWAP1 SSTORE POP DUP1 PUSH1 0x4 ADD SLOAD SELFBALANCE LT PUSH2 0x12EE JUMPI PUSH1 0x2 DUP2 PUSH1 0x7 ADD PUSH1 0x0 PUSH2 0x100 EXP DUP2 SLOAD DUP2 PUSH1 0xFF MUL NOT AND SWAP1 DUP4 PUSH1 0x5 DUP2 GT ISZERO PUSH2 0x12E8 JUMPI PUSH2 0x12E7 PUSH2 0x173F JUMP JUMPDEST JUMPDEST MUL OR SWAP1 SSTORE POP JUMPDEST CALLER PUSH20 0xFFFFFFFFFFFFFFFFFFFFFFFFFFFFFFFFFFFFFFFF AND DUP3 PUSH32 0x5B47478B1A9BCCCC0683800F537F513A17C66EBB7A9B7E2773053B37FC83BB05 CALLVALUE PUSH1 0x40 MLOAD PUSH2 0x1335 SWAP2 SWAP1 PUSH2 0x197E JUMP JUMPDEST PUSH1 0x40 MLOAD DUP1 SWAP2 SUB SWAP1 LOG3 POP POP JUMP JUMPDEST PUSH2 0x1349 PUSH2 0x13C4 JUMP JUMPDEST PUSH1 0x0 PUSH20 0xFFFFFFFFFFFFFFFFFFFFFFFFFFFFFFFFFFFFFFFF AND DUP2 PUSH20 0xFFFFFFFFFFFFFFFFFFFFFFFFFFFFFFFFFFFFFFFF AND SUB PUSH2 0x13B8 JUMPI PUSH1 0x40 MLOAD PUSH32 0x8C379A000000000000000000000000000000000000000000000000000000000 DUP2 MSTORE PUSH1 0x4 ADD PUSH2 0x13AF SWAP1 PUSH2 0x286D JUMP JUMPDEST PUSH1 0x40 MLOAD DUP1 SWAP2 SUB SWAP1 REVERT JUMPDEST PUSH2 0x13C1 DUP2 PUSH2 0x1442 JUMP JUMPDEST POP JUMP JUMPDEST PUSH2 0x13CC PUSH2 0x1506 JUMP JUMPDEST PUSH20 0xFFFFFFFFFFFFFFFFFFFFFFFFFFFFFFFFFFFFFFFF AND PUSH2 0x13EA PUSH2 0xD2D JUMP JUMPDEST PUSH20 0xFFFFFFFFFFFFFFFFFFFFFFFFFFFFFFFFFFFFFFFF AND EQ PUSH2 0x1440 JUMPI PUSH1 0x40 MLOAD PUSH32 0x8C379A000000000000000000000000000000000000000000000000000000000 DUP2 MSTORE PUSH1 0x4 ADD PUSH2 0x1437 SWAP1 PUSH2 0x28D9 JUMP JUMPDEST PUSH1 0x40 MLOAD DUP1 SWAP2 SUB SWAP1 REVERT JUMPDEST JUMP JUMPDEST PUSH1 0x0 DUP1 PUSH1 0x0 SWAP1 SLOAD SWAP1 PUSH2 0x100 EXP SWAP1 DIV PUSH20 0xFFFFFFFFFFFFFFFFFFFFFFFFFFFFFFFFFFFFFFFF AND SWAP1 POP DUP2 PUSH1 0x0 DUP1 PUSH2 0x100 EXP DUP2 SLOAD DUP2 PUSH20 0xFFFFFFFFFFFFFFFFFFFFFFFFFFFFFFFFFFFFFFFF MUL NOT AND SWAP1 DUP4 PUSH20 0xFFFFFFFFFFFFFFFFFFFFFFFFFFFFFFFFFFFFFFFF AND MUL OR SWAP1 SSTORE POP DUP2 PUSH20 0xFFFFFFFFFFFFFFFFFFFFFFFFFFFFFFFFFFFFFFFF AND DUP2 PUSH20 0xFFFFFFFFFFFFFFFFFFFFFFFFFFFFFFFFFFFFFFFF AND PUSH32 0x8BE0079C531659141344CD1FD0A4F28419497F9722A3DAAFE3B4186F6B6457E0 PUSH1 0x40 MLOAD PUSH1 0x40 MLOAD DUP1 SWAP2 SUB SWAP1 LOG3 POP POP JUMP JUMPDEST PUSH1 0x0 CALLER SWAP1 POP SWAP1 JUMP JUMPDEST DUP3 DUP1 SLOAD DUP3 DUP3 SSTORE SWAP1 PUSH1 0x0 MSTORE PUSH1 0x20 PUSH1 0x0 KECCAK256 SWAP1 DUP2 ADD SWAP3 DUP3 ISZERO PUSH2 0x1556 JUMPI SWAP2 PUSH1 0x20 MUL DUP3 ADD JUMPDEST DUP3 DUP2 GT ISZERO PUSH2 0x1555 JUMPI DUP3 MLOAD DUP3 SWAP1 DUP2 PUSH2 0x1545 SWAP2 SWAP1 PUSH2 0x2477 JUMP JUMPDEST POP SWAP2 PUSH1 0x20 ADD SWAP2 SWAP1 PUSH1 0x1 ADD SWAP1 PUSH2 0x152E JUMP JUMPDEST JUMPDEST POP SWAP1 POP PUSH2 0x1563 SWAP2 SWAP1 PUSH2 0x1567 JUMP JUMPDEST POP SWAP1 JUMP JUMPDEST JUMPDEST DUP1 DUP3 GT ISZERO PUSH2 0x1587 JUMPI PUSH1 0x0 DUP2 DUP2 PUSH2 0x157E SWAP2 SWAP1 PUSH2 0x158B JUMP JUMPDEST POP PUSH1 0x1 ADD PUSH2 0x1568 JUMP JUMPDEST POP SWAP1 JUMP JUMPDEST POP DUP1 SLOAD PUSH2 0x1597 SWAP1 PUSH2 0x1FE1 JUMP JUMPDEST PUSH1 0x0 DUP3 SSTORE DUP1 PUSH1 0x1F LT PUSH2 0x15A9 JUMPI POP PUSH2 0x15C8 JUMP JUMPDEST PUSH1 0x1F ADD PUSH1 0x20 SWAP1 DIV SWAP1 PUSH1 0x0 MSTORE PUSH1 0x20 PUSH1 0x0 KECCAK256 SWAP1 DUP2 ADD SWAP1 PUSH2 0x15C7 SWAP2 SWAP1 PUSH2 0x15CB JUMP JUMPDEST JUMPDEST POP JUMP JUMPDEST JUMPDEST DUP1 DUP3 GT ISZERO PUSH2 0x15E4 JUMPI PUSH1 0x0 DUP2 PUSH1 0x0 SWAP1 SSTORE POP PUSH1 0x1 ADD PUSH2 0x15CC JUMP JUMPDEST POP SWAP1 JUMP JUMPDEST PUSH1 0x0 PUSH1 0x40 MLOAD SWAP1 POP SWAP1 JUMP JUMPDEST PUSH1 0x0 DUP1 REVERT JUMPDEST PUSH1 0x0 DUP1 REVERT JUMPDEST PUSH1 0x0 DUP2 SWAP1 POP SWAP2 SWAP1 POP JUMP JUMPDEST PUSH2 0x160F DUP2 PUSH2 0x15FC JUMP JUMPDEST DUP2 EQ PUSH2 0x161A JUMPI PUSH1 0x0 DUP1 REVERT JUMPDEST POP JUMP JUMPDEST PUSH1 0x0 DUP2 CALLDATALOAD SWAP1 POP PUSH2 0x162C DUP2 PUSH2 0x1606 JUMP JUMPDEST SWAP3 SWAP2 POP POP JUMP JUMPDEST PUSH1 0x0 PUSH1 0x20 DUP3 DUP5 SUB SLT ISZERO PUSH2 0x1648 JUMPI PUSH2 0x1647 PUSH2 0x15F2 JUMP JUMPDEST JUMPDEST PUSH1 0x0 PUSH2 0x1656 DUP5 DUP3 DUP6 ADD PUSH2 0x161D JUMP JUMPDEST SWAP2 POP POP SWAP3 SWAP2 POP POP JUMP JUMPDEST PUSH2 0x1668 DUP2 PUSH2 0x15FC JUMP JUMPDEST DUP3 MSTORE POP POP JUMP JUMPDEST PUSH1 0x0 PUSH20 0xFFFFFFFFFFFFFFFFFFFFFFFFFFFFFFFFFFFFFFFF DUP3 AND SWAP1 POP SWAP2 SWAP1 POP JUMP JUMPDEST PUSH1 0x0 PUSH2 0x1699 DUP3 PUSH2 0x166E JUMP JUMPDEST SWAP1 POP SWAP2 SWAP1 POP JUMP JUMPDEST PUSH2 0x16A9 DUP2 PUSH2 0x168E JUMP JUMPDEST DUP3 MSTORE POP POP JUMP JUMPDEST PUSH1 0x0 DUP2 MLOAD SWAP1 POP SWAP2 SWAP1 POP JUMP JUMPDEST PUSH1 0x0 DUP3 DUP3 MSTORE PUSH1 0x20 DUP3 ADD SWAP1 POP SWAP3 SWAP2 POP POP JUMP JUMPDEST PUSH1 0x0 JUMPDEST DUP4 DUP2 LT ISZERO PUSH2 0x16E9 JUMPI DUP1 DUP3 ADD MLOAD DUP2 DUP5 ADD MSTORE PUSH1 0x20 DUP2 ADD SWAP1 POP PUSH2 0x16CE JUMP JUMPDEST PUSH1 0x0 DUP5 DUP5 ADD MSTORE POP POP POP POP JUMP JUMPDEST PUSH1 0x0 PUSH1 0x1F NOT PUSH1 0x1F DUP4 ADD AND SWAP1 POP SWAP2 SWAP1 POP JUMP JUMPDEST PUSH1 0x0 PUSH2 0x1711 DUP3 PUSH2 0x16AF JUMP JUMPDEST PUSH2 0x171B DUP2 DUP6 PUSH2 0x16BA JUMP JUMPDEST SWAP4 POP PUSH2 0x172B DUP2 DUP6 PUSH1 0x20 DUP7 ADD PUSH2 0x16CB JUMP JUMPDEST PUSH2 0x1734 DUP2 PUSH2 0x16F5 JUMP JUMPDEST DUP5 ADD SWAP2 POP POP SWAP3 SWAP2 POP POP JUMP JUMPDEST PUSH32 0x4E487B7100000000000000000000000000000000000000000000000000000000 PUSH1 0x0 MSTORE PUSH1 0x21 PUSH1 0x4 MSTORE PUSH1 0x24 PUSH1 0x0 REVERT JUMPDEST PUSH1 0x6 DUP2 LT PUSH2 0x177F JUMPI PUSH2 0x177E PUSH2 0x173F JUMP JUMPDEST JUMPDEST POP JUMP JUMPDEST PUSH1 0x0 DUP2 SWAP1 POP PUSH2 0x1790 DUP3 PUSH2 0x176E JUMP JUMPDEST SWAP2 SWAP1 POP JUMP JUMPDEST PUSH1 0x0 PUSH2 0x17A0 DUP3 PUSH2 0x1782 JUMP JUMPDEST SWAP1 POP SWAP2 SWAP1 POP JUMP JUMPDEST PUSH2 0x17B0 DUP2 PUSH2 0x1795 JUMP JUMPDEST DUP3 MSTORE POP POP JUMP JUMPDEST PUSH1 0x0 PUSH2 0x100 DUP3 ADD SWAP1 POP PUSH2 0x17CC PUSH1 0x0 DUP4 ADD DUP12 PUSH2 0x165F JUMP JUMPDEST PUSH2 0x17D9 PUSH1 0x20 DUP4 ADD DUP11 PUSH2 0x16A0 JUMP JUMPDEST DUP2 DUP2 SUB PUSH1 0x40 DUP4 ADD MSTORE PUSH2 0x17EB DUP2 DUP10 PUSH2 0x1706 JUMP JUMPDEST SWAP1 POP DUP2 DUP2 SUB PUSH1 0x60 DUP4 ADD MSTORE PUSH2 0x17FF DUP2 DUP9 PUSH2 0x1706 JUMP JUMPDEST SWAP1 POP PUSH2 0x180E PUSH1 0x80 DUP4 ADD DUP8 PUSH2 0x165F JUMP JUMPDEST PUSH2 0x181B PUSH1 0xA0 DUP4 ADD DUP7 PUSH2 0x165F JUMP JUMPDEST PUSH2 0x1828 PUSH1 0xC0 DUP4 ADD DUP6 PUSH2 0x165F JUMP JUMPDEST PUSH2 0x1835 PUSH1 0xE0 DUP4 ADD DUP5 PUSH2 0x17A7 JUMP JUMPDEST SWAP10 SWAP9 POP POP POP POP POP POP POP POP POP JUMP JUMPDEST PUSH2 0x184B DUP2 PUSH2 0x168E JUMP JUMPDEST DUP2 EQ PUSH2 0x1856 JUMPI PUSH1 0x0 DUP1 REVERT JUMPDEST POP JUMP JUMPDEST PUSH1 0x0 DUP2 CALLDATALOAD SWAP1 POP PUSH2 0x1868 DUP2 PUSH2 0x1842 JUMP JUMPDEST SWAP3 SWAP2 POP POP JUMP JUMPDEST PUSH1 0x0 PUSH1 0x20 DUP3 DUP5 SUB SLT ISZERO PUSH2 0x1884 JUMPI PUSH2 0x1883 PUSH2 0x15F2 JUMP JUMPDEST JUMPDEST PUSH1 0x0 PUSH2 0x1892 DUP5 DUP3 DUP6 ADD PUSH2 0x1859 JUMP JUMPDEST SWAP2 POP POP SWAP3 SWAP2 POP POP JUMP JUMPDEST PUSH1 0x0 DUP2 SWAP1 POP SWAP2 SWAP1 POP JUMP JUMPDEST PUSH2 0x18AE DUP2 PUSH2 0x189B JUMP JUMPDEST DUP3 MSTORE POP POP JUMP JUMPDEST PUSH1 0x0 DUP2 ISZERO ISZERO SWAP1 POP SWAP2 SWAP1 POP JUMP JUMPDEST PUSH2 0x18C9 DUP2 PUSH2 0x18B4 JUMP JUMPDEST DUP3 MSTORE POP POP JUMP JUMPDEST PUSH1 0x0 PUSH1 0xC0 DUP3 ADD SWAP1 POP PUSH2 0x18E4 PUSH1 0x0 DUP4 ADD DUP10 PUSH2 0x16A0 JUMP JUMPDEST PUSH2 0x18F1 PUSH1 0x20 DUP4 ADD DUP9 PUSH2 0x18A5 JUMP JUMPDEST DUP2 DUP2 SUB PUSH1 0x40 DUP4 ADD MSTORE PUSH2 0x1903 DUP2 DUP8 PUSH2 0x1706 JUMP JUMPDEST SWAP1 POP DUP2 DUP2 SUB PUSH1 0x60 DUP4 ADD MSTORE PUSH2 0x1917 DUP2 DUP7 PUSH2 0x1706 JUMP JUMPDEST SWAP1 POP PUSH2 0x1926 PUSH1 0x80 DUP4 ADD DUP6 PUSH2 0x165F JUMP JUMPDEST PUSH2 0x1933 PUSH1 0xA0 DUP4 ADD DUP5 PUSH2 0x18C0 JUMP JUMPDEST SWAP8 SWAP7 POP POP POP POP POP POP POP JUMP JUMPDEST PUSH1 0x0 DUP1 PUSH1 0x40 DUP4 DUP6 SUB SLT ISZERO PUSH2 0x1955 JUMPI PUSH2 0x1954 PUSH2 0x15F2 JUMP JUMPDEST JUMPDEST PUSH1 0x0 PUSH2 0x1963 DUP6 DUP3 DUP7 ADD PUSH2 0x161D JUMP JUMPDEST SWAP3 POP POP PUSH1 0x20 PUSH2 0x1974 DUP6 DUP3 DUP7 ADD PUSH2 0x161D JUMP JUMPDEST SWAP2 POP POP SWAP3 POP SWAP3 SWAP1 POP JUMP JUMPDEST PUSH1 0x0 PUSH1 0x20 DUP3 ADD SWAP1 POP PUSH2 0x1993 PUSH1 0x0 DUP4 ADD DUP5 PUSH2 0x165F JUMP JUMPDEST SWAP3 SWAP2 POP POP JUMP JUMPDEST PUSH2 0x19A2 DUP2 PUSH2 0x189B JUMP JUMPDEST DUP2 EQ PUSH2 0x19AD JUMPI PUSH1 0x0 DUP1 REVERT JUMPDEST POP JUMP JUMPDEST PUSH1 0x0 DUP2 CALLDATALOAD SWAP1 POP PUSH2 0x19BF DUP2 PUSH2 0x1999 JUMP JUMPDEST SWAP3 SWAP2 POP POP JUMP JUMPDEST PUSH1 0x0 DUP1 REVERT JUMPDEST PUSH1 0x0 DUP1 REVERT JUMPDEST PUSH32 0x4E487B7100000000000000000000000000000000000000000000000000000000 PUSH1 0x0 MSTORE PUSH1 0x41 PUSH1 0x4 MSTORE PUSH1 0x24 PUSH1 0x0 REVERT JUMPDEST PUSH2 0x1A07 DUP3 PUSH2 0x16F5 JUMP JUMPDEST DUP2 ADD DUP2 DUP2 LT PUSH8 0xFFFFFFFFFFFFFFFF DUP3 GT OR ISZERO PUSH2 0x1A26 JUMPI PUSH2 0x1A25 PUSH2 0x19CF JUMP JUMPDEST JUMPDEST DUP1 PUSH1 0x40 MSTORE POP POP POP JUMP JUMPDEST PUSH1 0x0 PUSH2 0x1A39 PUSH2 0x15E8 JUMP JUMPDEST SWAP1 POP PUSH2 0x1A45 DUP3 DUP3 PUSH2 0x19FE JUMP JUMPDEST SWAP2 SWAP1 POP JUMP JUMPDEST PUSH1 0x0 PUSH8 0xFFFFFFFFFFFFFFFF DUP3 GT ISZERO PUSH2 0x1A65 JUMPI PUSH2 0x1A64 PUSH2 0x19CF JUMP JUMPDEST JUMPDEST PUSH2 0x1A6E DUP3 PUSH2 0x16F5 JUMP JUMPDEST SWAP1 POP PUSH1 0x20 DUP2 ADD SWAP1 POP SWAP2 SWAP1 POP JUMP JUMPDEST DUP3 DUP2 DUP4 CALLDATACOPY PUSH1 0x0 DUP4 DUP4 ADD MSTORE POP POP POP JUMP JUMPDEST PUSH1 0x0 PUSH2 0x1A9D PUSH2 0x1A98 DUP5 PUSH2 0x1A4A JUMP JUMPDEST PUSH2 0x1A2F JUMP JUMPDEST SWAP1 POP DUP3 DUP2 MSTORE PUSH1 0x20 DUP2 ADD DUP5 DUP5 DUP5 ADD GT ISZERO PUSH2 0x1AB9 JUMPI PUSH2 0x1AB8 PUSH2 0x19CA JUMP JUMPDEST JUMPDEST PUSH2 0x1AC4 DUP5 DUP3 DUP6 PUSH2 0x1A7B JUMP JUMPDEST POP SWAP4 SWAP3 POP POP POP JUMP JUMPDEST PUSH1 0x0 DUP3 PUSH1 0x1F DUP4 ADD SLT PUSH2 0x1AE1 JUMPI PUSH2 0x1AE0 PUSH2 0x19C5 JUMP JUMPDEST JUMPDEST DUP2 CALLDATALOAD PUSH2 0x1AF1 DUP5 DUP3 PUSH1 0x20 DUP7 ADD PUSH2 0x1A8A JUMP JUMPDEST SWAP2 POP POP SWAP3 SWAP2 POP POP JUMP JUMPDEST PUSH1 0x0 PUSH8 0xFFFFFFFFFFFFFFFF DUP3 GT ISZERO PUSH2 0x1B15 JUMPI PUSH2 0x1B14 PUSH2 0x19CF JUMP JUMPDEST JUMPDEST PUSH1 0x20 DUP3 MUL SWAP1 POP PUSH1 0x20 DUP2 ADD SWAP1 POP SWAP2 SWAP1 POP JUMP JUMPDEST PUSH1 0x0 DUP1 REVERT JUMPDEST PUSH1 0x0 PUSH2 0x1B3E PUSH2 0x1B39 DUP5 PUSH2 0x1AFA JUMP JUMPDEST PUSH2 0x1A2F JUMP JUMPDEST SWAP1 POP DUP1 DUP4 DUP3 MSTORE PUSH1 0x20 DUP3 ADD SWAP1 POP PUSH1 0x20 DUP5 MUL DUP4 ADD DUP6 DUP2 GT ISZERO PUSH2 0x1B61 JUMPI PUSH2 0x1B60 PUSH2 0x1B26 JUMP JUMPDEST JUMPDEST DUP4 JUMPDEST DUP2 DUP2 LT ISZERO PUSH2 0x1BA8 JUMPI DUP1 CALLDATALOAD PUSH8 0xFFFFFFFFFFFFFFFF DUP2 GT ISZERO PUSH2 0x1B86 JUMPI PUSH2 0x1B85 PUSH2 0x19C5 JUMP JUMPDEST JUMPDEST DUP1 DUP7 ADD PUSH2 0x1B93 DUP10 DUP3 PUSH2 0x1ACC JUMP JUMPDEST DUP6 MSTORE PUSH1 0x20 DUP6 ADD SWAP5 POP POP POP PUSH1 0x20 DUP2 ADD SWAP1 POP PUSH2 0x1B63 JUMP JUMPDEST POP POP POP SWAP4 SWAP3 POP POP POP JUMP JUMPDEST PUSH1 0x0 DUP3 PUSH1 0x1F DUP4 ADD SLT PUSH2 0x1BC7 JUMPI PUSH2 0x1BC6 PUSH2 0x19C5 JUMP JUMPDEST JUMPDEST DUP2 CALLDATALOAD PUSH2 0x1BD7 DUP5 DUP3 PUSH1 0x20 DUP7 ADD PUSH2 0x1B2B JUMP JUMPDEST SWAP2 POP POP SWAP3 SWAP2 POP POP JUMP JUMPDEST PUSH1 0x0 DUP1 PUSH1 0x0 DUP1 PUSH1 0x80 DUP6 DUP8 SUB SLT ISZERO PUSH2 0x1BFA JUMPI PUSH2 0x1BF9 PUSH2 0x15F2 JUMP JUMPDEST JUMPDEST PUSH1 0x0 PUSH2 0x1C08 DUP8 DUP3 DUP9 ADD PUSH2 0x19B0 JUMP JUMPDEST SWAP5 POP POP PUSH1 0x20 DUP6 ADD CALLDATALOAD PUSH8 0xFFFFFFFFFFFFFFFF DUP2 GT ISZERO PUSH2 0x1C29 JUMPI PUSH2 0x1C28 PUSH2 0x15F7 JUMP JUMPDEST JUMPDEST PUSH2 0x1C35 DUP8 DUP3 DUP9 ADD PUSH2 0x1ACC JUMP JUMPDEST SWAP4 POP POP PUSH1 0x40 DUP6 ADD CALLDATALOAD PUSH8 0xFFFFFFFFFFFFFFFF DUP2 GT ISZERO PUSH2 0x1C56 JUMPI PUSH2 0x1C55 PUSH2 0x15F7 JUMP JUMPDEST JUMPDEST PUSH2 0x1C62 DUP8 DUP3 DUP9 ADD PUSH2 0x1ACC JUMP JUMPDEST SWAP3 POP POP PUSH1 0x60 DUP6 ADD CALLDATALOAD PUSH8 0xFFFFFFFFFFFFFFFF DUP2 GT ISZERO PUSH2 0x1C83 JUMPI PUSH2 0x1C82 PUSH2 0x15F7 JUMP JUMPDEST JUMPDEST PUSH2 0x1C8F DUP8 DUP3 DUP9 ADD PUSH2 0x1BB2 JUMP JUMPDEST SWAP2 POP POP SWAP3 SWAP6 SWAP2 SWAP5 POP SWAP3 POP JUMP JUMPDEST PUSH1 0x0 DUP2 MLOAD SWAP1 POP SWAP2 SWAP1 POP JUMP JUMPDEST PUSH1 0x0 DUP3 DUP3 MSTORE PUSH1 0x20 DUP3 ADD SWAP1 POP SWAP3 SWAP2 POP POP JUMP JUMPDEST PUSH1 0x0 DUP2 SWAP1 POP PUSH1 0x20 DUP3 ADD SWAP1 POP SWAP2 SWAP1 POP JUMP JUMPDEST PUSH2 0x1CD0 DUP2 PUSH2 0x15FC JUMP JUMPDEST DUP3 MSTORE POP POP JUMP JUMPDEST PUSH1 0x0 PUSH2 0x1CE2 DUP4 DUP4 PUSH2 0x1CC7 JUMP JUMPDEST PUSH1 0x20 DUP4 ADD SWAP1 POP SWAP3 SWAP2 POP POP JUMP JUMPDEST PUSH1 0x0 PUSH1 0x20 DUP3 ADD SWAP1 POP SWAP2 SWAP1 POP JUMP JUMPDEST PUSH1 0x0 PUSH2 0x1D06 DUP3 PUSH2 0x1C9B JUMP JUMPDEST PUSH2 0x1D10 DUP2 DUP6 PUSH2 0x1CA6 JUMP JUMPDEST SWAP4 POP PUSH2 0x1D1B DUP4 PUSH2 0x1CB7 JUMP JUMPDEST DUP1 PUSH1 0x0 JUMPDEST DUP4 DUP2 LT ISZERO PUSH2 0x1D4C JUMPI DUP2 MLOAD PUSH2 0x1D33 DUP9 DUP3 PUSH2 0x1CD6 JUMP JUMPDEST SWAP8 POP PUSH2 0x1D3E DUP4 PUSH2 0x1CEE JUMP JUMPDEST SWAP3 POP POP PUSH1 0x1 DUP2 ADD SWAP1 POP PUSH2 0x1D1F JUMP JUMPDEST POP DUP6 SWAP4 POP POP POP POP SWAP3 SWAP2 POP POP JUMP JUMPDEST PUSH1 0x0 PUSH1 0x20 DUP3 ADD SWAP1 POP DUP2 DUP2 SUB PUSH1 0x0 DUP4 ADD MSTORE PUSH2 0x1D73 DUP2 DUP5 PUSH2 0x1CFB JUMP JUMPDEST SWAP1 POP SWAP3 SWAP2 POP POP JUMP JUMPDEST PUSH1 0x0 PUSH1 0x20 DUP3 ADD SWAP1 POP PUSH2 0x1D90 PUSH1 0x0 DUP4 ADD DUP5 PUSH2 0x16A0 JUMP JUMPDEST SWAP3 SWAP2 POP POP JUMP JUMPDEST PUSH1 0x0 DUP1 PUSH1 0x40 DUP4 DUP6 SUB SLT ISZERO PUSH2 0x1DAD JUMPI PUSH2 0x1DAC PUSH2 0x15F2 JUMP JUMPDEST JUMPDEST PUSH1 0x0 PUSH2 0x1DBB DUP6 DUP3 DUP7 ADD PUSH2 0x1859 JUMP JUMPDEST SWAP3 POP POP PUSH1 0x20 PUSH2 0x1DCC DUP6 DUP3 DUP7 ADD PUSH2 0x161D JUMP JUMPDEST SWAP2 POP POP SWAP3 POP SWAP3 SWAP1 POP JUMP JUMPDEST PUSH1 0x0 PUSH8 0xFFFFFFFFFFFFFFFF DUP3 GT ISZERO PUSH2 0x1DF1 JUMPI PUSH2 0x1DF0 PUSH2 0x19CF JUMP JUMPDEST JUMPDEST PUSH1 0x20 DUP3 MUL SWAP1 POP PUSH1 0x20 DUP2 ADD SWAP1 POP SWAP2 SWAP1 POP JUMP JUMPDEST PUSH1 0x0 PUSH2 0x1E15 PUSH2 0x1E10 DUP5 PUSH2 0x1DD6 JUMP JUMPDEST PUSH2 0x1A2F JUMP JUMPDEST SWAP1 POP DUP1 DUP4 DUP3 MSTORE PUSH1 0x20 DUP3 ADD SWAP1 POP PUSH1 0x20 DUP5 MUL DUP4 ADD DUP6 DUP2 GT ISZERO PUSH2 0x1E38 JUMPI PUSH2 0x1E37 PUSH2 0x1B26 JUMP JUMPDEST JUMPDEST DUP4 JUMPDEST DUP2 DUP2 LT ISZERO PUSH2 0x1E61 JUMPI DUP1 PUSH2 0x1E4D DUP9 DUP3 PUSH2 0x161D JUMP JUMPDEST DUP5 MSTORE PUSH1 0x20 DUP5 ADD SWAP4 POP POP PUSH1 0x20 DUP2 ADD SWAP1 POP PUSH2 0x1E3A JUMP JUMPDEST POP POP POP SWAP4 SWAP3 POP POP POP JUMP JUMPDEST PUSH1 0x0 DUP3 PUSH1 0x1F DUP4 ADD SLT PUSH2 0x1E80 JUMPI PUSH2 0x1E7F PUSH2 0x19C5 JUMP JUMPDEST JUMPDEST DUP2 CALLDATALOAD PUSH2 0x1E90 DUP5 DUP3 PUSH1 0x20 DUP7 ADD PUSH2 0x1E02 JUMP JUMPDEST SWAP2 POP POP SWAP3 SWAP2 POP POP JUMP JUMPDEST PUSH1 0x0 DUP1 PUSH1 0x0 DUP1 PUSH1 0x0 DUP1 PUSH1 0xC0 DUP8 DUP10 SUB SLT ISZERO PUSH2 0x1EB6 JUMPI PUSH2 0x1EB5 PUSH2 0x15F2 JUMP JUMPDEST JUMPDEST PUSH1 0x0 DUP8 ADD CALLDATALOAD PUSH8 0xFFFFFFFFFFFFFFFF DUP2 GT ISZERO PUSH2 0x1ED4 JUMPI PUSH2 0x1ED3 PUSH2 0x15F7 JUMP JUMPDEST JUMPDEST PUSH2 0x1EE0 DUP10 DUP3 DUP11 ADD PUSH2 0x1ACC JUMP JUMPDEST SWAP7 POP POP PUSH1 0x20 DUP8 ADD CALLDATALOAD PUSH8 0xFFFFFFFFFFFFFFFF DUP2 GT ISZERO PUSH2 0x1F01 JUMPI PUSH2 0x1F00 PUSH2 0x15F7 JUMP JUMPDEST JUMPDEST PUSH2 0x1F0D DUP10 DUP3 DUP11 ADD PUSH2 0x1ACC JUMP JUMPDEST SWAP6 POP POP PUSH1 0x40 PUSH2 0x1F1E DUP10 DUP3 DUP11 ADD PUSH2 0x161D JUMP JUMPDEST SWAP5 POP POP PUSH1 0x60 DUP8 ADD CALLDATALOAD PUSH8 0xFFFFFFFFFFFFFFFF DUP2 GT ISZERO PUSH2 0x1F3F JUMPI PUSH2 0x1F3E PUSH2 0x15F7 JUMP JUMPDEST JUMPDEST PUSH2 0x1F4B DUP10 DUP3 DUP11 ADD PUSH2 0x1BB2 JUMP JUMPDEST SWAP4 POP POP PUSH1 0x80 DUP8 ADD CALLDATALOAD PUSH8 0xFFFFFFFFFFFFFFFF DUP2 GT ISZERO PUSH2 0x1F6C JUMPI PUSH2 0x1F6B PUSH2 0x15F7 JUMP JUMPDEST JUMPDEST PUSH2 0x1F78 DUP10 DUP3 DUP11 ADD PUSH2 0x1E6B JUMP JUMPDEST SWAP3 POP POP PUSH1 0xA0 DUP8 ADD CALLDATALOAD PUSH8 0xFFFFFFFFFFFFFFFF DUP2 GT ISZERO PUSH2 0x1F99 JUMPI PUSH2 0x1F98 PUSH2 0x15F7 JUMP JUMPDEST JUMPDEST PUSH2 0x1FA5 DUP10 DUP3 DUP11 ADD PUSH2 0x1E6B JUMP JUMPDEST SWAP2 POP POP SWAP3 SWAP6 POP SWAP3 SWAP6 POP SWAP3 SWAP6 JUMP JUMPDEST PUSH32 0x4E487B7100000000000000000000000000000000000000000000000000000000 PUSH1 0x0 MSTORE PUSH1 0x22 PUSH1 0x4 MSTORE PUSH1 0x24 PUSH1 0x0 REVERT JUMPDEST PUSH1 0x0 PUSH1 0x2 DUP3 DIV SWAP1 POP PUSH1 0x1 DUP3 AND DUP1 PUSH2 0x1FF9 JUMPI PUSH1 0x7F DUP3 AND SWAP2 POP JUMPDEST PUSH1 0x20 DUP3 LT DUP2 SUB PUSH2 0x200C JUMPI PUSH2 0x200B PUSH2 0x1FB2 JUMP JUMPDEST JUMPDEST POP SWAP2 SWAP1 POP JUMP JUMPDEST PUSH32 0x4F6E6C7920726573656172636865722063616E207375626D6974206D696C6573 PUSH1 0x0 DUP3 ADD MSTORE PUSH32 0x746F6E6500000000000000000000000000000000000000000000000000000000 PUSH1 0x20 DUP3 ADD MSTORE POP JUMP JUMPDEST PUSH1 0x0 PUSH2 0x206E PUSH1 0x24 DUP4 PUSH2 0x16BA JUMP JUMPDEST SWAP2 POP PUSH2 0x2079 DUP3 PUSH2 0x2012 JUMP JUMPDEST PUSH1 0x40 DUP3 ADD SWAP1 POP SWAP2 SWAP1 POP JUMP JUMPDEST PUSH1 0x0 PUSH1 0x20 DUP3 ADD SWAP1 POP DUP2 DUP2 SUB PUSH1 0x0 DUP4 ADD MSTORE PUSH2 0x209D DUP2 PUSH2 0x2061 JUMP JUMPDEST SWAP1 POP SWAP2 SWAP1 POP JUMP JUMPDEST PUSH32 0x496E76616C6964206D696C6573746F6E65000000000000000000000000000000 PUSH1 0x0 DUP3 ADD MSTORE POP JUMP JUMPDEST PUSH1 0x0 PUSH2 0x20DA PUSH1 0x11 DUP4 PUSH2 0x16BA JUMP JUMPDEST SWAP2 POP PUSH2 0x20E5 DUP3 PUSH2 0x20A4 JUMP JUMPDEST PUSH1 0x20 DUP3 ADD SWAP1 POP SWAP2 SWAP1 POP JUMP JUMPDEST PUSH1 0x0 PUSH1 0x20 DUP3 ADD SWAP1 POP DUP2 DUP2 SUB PUSH1 0x0 DUP4 ADD MSTORE PUSH2 0x2109 DUP2 PUSH2 0x20CD JUMP JUMPDEST SWAP1 POP SWAP2 SWAP1 POP JUMP JUMPDEST PUSH32 0x4D696C6573746F6E6520616C726561647920636F6D706C657465640000000000 PUSH1 0x0 DUP3 ADD MSTORE POP JUMP JUMPDEST PUSH1 0x0 PUSH2 0x2146 PUSH1 0x1B DUP4 PUSH2 0x16BA JUMP JUMPDEST SWAP2 POP PUSH2 0x2151 DUP3 PUSH2 0x2110 JUMP JUMPDEST PUSH1 0x20 DUP3 ADD SWAP1 POP SWAP2 SWAP1 POP JUMP JUMPDEST PUSH1 0x0 PUSH1 0x20 DUP3 ADD SWAP1 POP DUP2 DUP2 SUB PUSH1 0x0 DUP4 ADD MSTORE PUSH2 0x2175 DUP2 PUSH2 0x2139 JUMP JUMPDEST SWAP1 POP SWAP2 SWAP1 POP JUMP JUMPDEST PUSH32 0x4D696C6573746F6E6520646561646C696E652070617373656400000000000000 PUSH1 0x0 DUP3 ADD MSTORE POP JUMP JUMPDEST PUSH1 0x0 PUSH2 0x21B2 PUSH1 0x19 DUP4 PUSH2 0x16BA JUMP JUMPDEST SWAP2 POP PUSH2 0x21BD DUP3 PUSH2 0x217C JUMP JUMPDEST PUSH1 0x20 DUP3 ADD SWAP1 POP SWAP2 SWAP1 POP JUMP JUMPDEST PUSH1 0x0 PUSH1 0x20 DUP3 ADD SWAP1 POP DUP2 DUP2 SUB PUSH1 0x0 DUP4 ADD MSTORE PUSH2 0x21E1 DUP2 PUSH2 0x21A5 JUMP JUMPDEST SWAP1 POP SWAP2 SWAP1 POP JUMP JUMPDEST PUSH32 0x4E487B7100000000000000000000000000000000000000000000000000000000 PUSH1 0x0 MSTORE PUSH1 0x11 PUSH1 0x4 MSTORE PUSH1 0x24 PUSH1 0x0 REVERT JUMPDEST PUSH1 0x0 PUSH2 0x2222 DUP3 PUSH2 0x15FC JUMP JUMPDEST SWAP2 POP PUSH32 0xFFFFFFFFFFFFFFFFFFFFFFFFFFFFFFFFFFFFFFFFFFFFFFFFFFFFFFFFFFFFFFFF DUP3 SUB PUSH2 0x2254 JUMPI PUSH2 0x2253 PUSH2 0x21E8 JUMP JUMPDEST JUMPDEST PUSH1 0x1 DUP3 ADD SWAP1 POP SWAP2 SWAP1 POP JUMP JUMPDEST PUSH32 0x5265736561726368657220616C72656164792072656769737465726564000000 PUSH1 0x0 DUP3 ADD MSTORE POP JUMP JUMPDEST PUSH1 0x0 PUSH2 0x2295 PUSH1 0x1D DUP4 PUSH2 0x16BA JUMP JUMPDEST SWAP2 POP PUSH2 0x22A0 DUP3 PUSH2 0x225F JUMP JUMPDEST PUSH1 0x20 DUP3 ADD SWAP1 POP SWAP2 SWAP1 POP JUMP JUMPDEST PUSH1 0x0 PUSH1 0x20 DUP3 ADD SWAP1 POP DUP2 DUP2 SUB PUSH1 0x0 DUP4 ADD MSTORE PUSH2 0x22C4 DUP2 PUSH2 0x2288 JUMP JUMPDEST SWAP1 POP SWAP2 SWAP1 POP JUMP JUMPDEST PUSH1 0x0 DUP2 SWAP1 POP DUP2 PUSH1 0x0 MSTORE PUSH1 0x20 PUSH1 0x0 KECCAK256 SWAP1 POP SWAP2 SWAP1 POP JUMP JUMPDEST PUSH1 0x0 PUSH1 0x20 PUSH1 0x1F DUP4 ADD DIV SWAP1 POP SWAP2 SWAP1 POP JUMP JUMPDEST PUSH1 0x0 DUP3 DUP3 SHL SWAP1 POP SWAP3 SWAP2 POP POP JUMP JUMPDEST PUSH1 0x0 PUSH1 0x8 DUP4 MUL PUSH2 0x232D PUSH32 0xFFFFFFFFFFFFFFFFFFFFFFFFFFFFFFFFFFFFFFFFFFFFFFFFFFFFFFFFFFFFFFFF DUP3 PUSH2 0x22F0 JUMP JUMPDEST PUSH2 0x2337 DUP7 DUP4 PUSH2 0x22F0 JUMP JUMPDEST SWAP6 POP DUP1 NOT DUP5 AND SWAP4 POP DUP1 DUP7 AND DUP5 OR SWAP3 POP POP POP SWAP4 SWAP3 POP POP POP JUMP JUMPDEST PUSH1 0x0 DUP2 SWAP1 POP SWAP2 SWAP1 POP JUMP JUMPDEST PUSH1 0x0 PUSH2 0x2374 PUSH2 0x236F PUSH2 0x236A DUP5 PUSH2 0x15FC JUMP JUMPDEST PUSH2 0x234F JUMP JUMPDEST PUSH2 0x15FC JUMP JUMPDEST SWAP1 POP SWAP2 SWAP1 POP JUMP JUMPDEST PUSH1 0x0 DUP2 SWAP1 POP SWAP2 SWAP1 POP JUMP JUMPDEST PUSH2 0x238E DUP4 PUSH2 0x2359 JUMP JUMPDEST PUSH2 0x23A2 PUSH2 0x239A DUP3 PUSH2 0x237B JUMP JUMPDEST DUP5 DUP5 SLOAD PUSH2 0x22FD JUMP JUMPDEST DUP3 SSTORE POP POP POP POP JUMP JUMPDEST PUSH1 0x0 SWAP1 JUMP JUMPDEST PUSH2 0x23B7 PUSH2 0x23AA JUMP JUMPDEST PUSH2 0x23C2 DUP2 DUP5 DUP5 PUSH2 0x2385 JUMP JUMPDEST POP POP POP JUMP JUMPDEST JUMPDEST DUP2 DUP2 LT ISZERO PUSH2 0x23E6 JUMPI PUSH2 0x23DB PUSH1 0x0 DUP3 PUSH2 0x23AF JUMP JUMPDEST PUSH1 0x1 DUP2 ADD SWAP1 POP PUSH2 0x23C8 JUMP JUMPDEST POP POP JUMP JUMPDEST PUSH1 0x1F DUP3 GT ISZERO PUSH2 0x242B JUMPI PUSH2 0x23FC DUP2 PUSH2 0x22CB JUMP JUMPDEST PUSH2 0x2405 DUP5 PUSH2 0x22E0 JUMP JUMPDEST DUP2 ADD PUSH1 0x20 DUP6 LT ISZERO PUSH2 0x2414 JUMPI DUP2 SWAP1 POP JUMPDEST PUSH2 0x2428 PUSH2 0x2420 DUP6 PUSH2 0x22E0 JUMP JUMPDEST DUP4 ADD DUP3 PUSH2 0x23C7 JUMP JUMPDEST POP POP JUMPDEST POP POP POP JUMP JUMPDEST PUSH1 0x0 DUP3 DUP3 SHR SWAP1 POP SWAP3 SWAP2 POP POP JUMP JUMPDEST PUSH1 0x0 PUSH2 0x244E PUSH1 0x0 NOT DUP5 PUSH1 0x8 MUL PUSH2 0x2430 JUMP JUMPDEST NOT DUP1 DUP4 AND SWAP2 POP POP SWAP3 SWAP2 POP POP JUMP JUMPDEST PUSH1 0x0 PUSH2 0x2467 DUP4 DUP4 PUSH2 0x243D JUMP JUMPDEST SWAP2 POP DUP3 PUSH1 0x2 MUL DUP3 OR SWAP1 POP SWAP3 SWAP2 POP POP JUMP JUMPDEST PUSH2 0x2480 DUP3 PUSH2 0x16AF JUMP JUMPDEST PUSH8 0xFFFFFFFFFFFFFFFF DUP2 GT ISZERO PUSH2 0x2499 JUMPI PUSH2 0x2498 PUSH2 0x19CF JUMP JUMPDEST JUMPDEST PUSH2 0x24A3 DUP3 SLOAD PUSH2 0x1FE1 JUMP JUMPDEST PUSH2 0x24AE DUP3 DUP3 DUP6 PUSH2 0x23EA JUMP JUMPDEST PUSH1 0x0 PUSH1 0x20 SWAP1 POP PUSH1 0x1F DUP4 GT PUSH1 0x1 DUP2 EQ PUSH2 0x24E1 JUMPI PUSH1 0x0 DUP5 ISZERO PUSH2 0x24CF JUMPI DUP3 DUP8 ADD MLOAD SWAP1 POP JUMPDEST PUSH2 0x24D9 DUP6 DUP3 PUSH2 0x245B JUMP JUMPDEST DUP7 SSTORE POP PUSH2 0x2541 JUMP JUMPDEST PUSH1 0x1F NOT DUP5 AND PUSH2 0x24EF DUP7 PUSH2 0x22CB JUMP JUMPDEST PUSH1 0x0 JUMPDEST DUP3 DUP2 LT ISZERO PUSH2 0x2517 JUMPI DUP5 DUP10 ADD MLOAD DUP3 SSTORE PUSH1 0x1 DUP3 ADD SWAP2 POP PUSH1 0x20 DUP6 ADD SWAP5 POP PUSH1 0x20 DUP2 ADD SWAP1 POP PUSH2 0x24F2 JUMP JUMPDEST DUP7 DUP4 LT ISZERO PUSH2 0x2534 JUMPI DUP5 DUP10 ADD MLOAD PUSH2 0x2530 PUSH1 0x1F DUP10 AND DUP3 PUSH2 0x243D JUMP JUMPDEST DUP4 SSTORE POP JUMPDEST PUSH1 0x1 PUSH1 0x2 DUP9 MUL ADD DUP9 SSTORE POP POP POP JUMPDEST POP POP POP POP POP POP JUMP JUMPDEST PUSH1 0x0 PUSH1 0x20 DUP3 ADD SWAP1 POP PUSH2 0x255E PUSH1 0x0 DUP4 ADD DUP5 PUSH2 0x18A5 JUMP JUMPDEST SWAP3 SWAP2 POP POP JUMP JUMPDEST PUSH32 0x52657365617263686572206E6F74207265676973746572656400000000000000 PUSH1 0x0 DUP3 ADD MSTORE POP JUMP JUMPDEST PUSH1 0x0 PUSH2 0x259A PUSH1 0x19 DUP4 PUSH2 0x16BA JUMP JUMPDEST SWAP2 POP PUSH2 0x25A5 DUP3 PUSH2 0x2564 JUMP JUMPDEST PUSH1 0x20 DUP3 ADD SWAP1 POP SWAP2 SWAP1 POP JUMP JUMPDEST PUSH1 0x0 PUSH1 0x20 DUP3 ADD SWAP1 POP DUP2 DUP2 SUB PUSH1 0x0 DUP4 ADD MSTORE PUSH2 0x25C9 DUP2 PUSH2 0x258D JUMP JUMPDEST SWAP1 POP SWAP2 SWAP1 POP JUMP JUMPDEST PUSH32 0x546F6F206D616E79206D696C6573746F6E657300000000000000000000000000 PUSH1 0x0 DUP3 ADD MSTORE POP JUMP JUMPDEST PUSH1 0x0 PUSH2 0x2606 PUSH1 0x13 DUP4 PUSH2 0x16BA JUMP JUMPDEST SWAP2 POP PUSH2 0x2611 DUP3 PUSH2 0x25D0 JUMP JUMPDEST PUSH1 0x20 DUP3 ADD SWAP1 POP SWAP2 SWAP1 POP JUMP JUMPDEST PUSH1 0x0 PUSH1 0x20 DUP3 ADD SWAP1 POP DUP2 DUP2 SUB PUSH1 0x0 DUP4 ADD MSTORE PUSH2 0x2635 DUP2 PUSH2 0x25F9 JUMP JUMPDEST SWAP1 POP SWAP2 SWAP1 POP JUMP JUMPDEST PUSH32 0x46756E64696E6720616D6F756E7420746F6F206C6F7700000000000000000000 PUSH1 0x0 DUP3 ADD MSTORE POP JUMP JUMPDEST PUSH1 0x0 PUSH2 0x2672 PUSH1 0x16 DUP4 PUSH2 0x16BA JUMP JUMPDEST SWAP2 POP PUSH2 0x267D DUP3 PUSH2 0x263C JUMP JUMPDEST PUSH1 0x20 DUP3 ADD SWAP1 POP SWAP2 SWAP1 POP JUMP JUMPDEST PUSH1 0x0 PUSH1 0x20 DUP3 ADD SWAP1 POP DUP2 DUP2 SUB PUSH1 0x0 DUP4 ADD MSTORE PUSH2 0x26A1 DUP2 PUSH2 0x2665 JUMP JUMPDEST SWAP1 POP SWAP2 SWAP1 POP JUMP JUMPDEST PUSH32 0x4E487B7100000000000000000000000000000000000000000000000000000000 PUSH1 0x0 MSTORE PUSH1 0x32 PUSH1 0x4 MSTORE PUSH1 0x24 PUSH1 0x0 REVERT JUMPDEST PUSH32 0x50726F706F73616C206E6F7420617661696C61626C6520666F722066756E6469 PUSH1 0x0 DUP3 ADD MSTORE PUSH32 0x6E67000000000000000000000000000000000000000000000000000000000000 PUSH1 0x20 DUP3 ADD MSTORE POP JUMP JUMPDEST PUSH1 0x0 PUSH2 0x2733 PUSH1 0x22 DUP4 PUSH2 0x16BA JUMP JUMPDEST SWAP2 POP PUSH2 0x273E DUP3 PUSH2 0x26D7 JUMP JUMPDEST PUSH1 0x40 DUP3 ADD SWAP1 POP SWAP2 SWAP1 POP JUMP JUMPDEST PUSH1 0x0 PUSH1 0x20 DUP3 ADD SWAP1 POP DUP2 DUP2 SUB PUSH1 0x0 DUP4 ADD MSTORE PUSH2 0x2762 DUP2 PUSH2 0x2726 JUMP JUMPDEST SWAP1 POP SWAP2 SWAP1 POP JUMP JUMPDEST PUSH32 0x46756E64696E6720616D6F756E74206D75737420626520677265617465722074 PUSH1 0x0 DUP3 ADD MSTORE PUSH32 0x68616E2030000000000000000000000000000000000000000000000000000000 PUSH1 0x20 DUP3 ADD MSTORE POP JUMP JUMPDEST PUSH1 0x0 PUSH2 0x27C5 PUSH1 0x25 DUP4 PUSH2 0x16BA JUMP JUMPDEST SWAP2 POP PUSH2 0x27D0 DUP3 PUSH2 0x2769 JUMP JUMPDEST PUSH1 0x40 DUP3 ADD SWAP1 POP SWAP2 SWAP1 POP JUMP JUMPDEST PUSH1 0x0 PUSH1 0x20 DUP3 ADD SWAP1 POP DUP2 DUP2 SUB PUSH1 0x0 DUP4 ADD MSTORE PUSH2 0x27F4 DUP2 PUSH2 0x27B8 JUMP JUMPDEST SWAP1 POP SWAP2 SWAP1 POP JUMP JUMPDEST PUSH32 0x4F776E61626C653A206E6577206F776E657220697320746865207A65726F2061 PUSH1 0x0 DUP3 ADD MSTORE PUSH32 0x6464726573730000000000000000000000000000000000000000000000000000 PUSH1 0x20 DUP3 ADD MSTORE POP JUMP JUMPDEST PUSH1 0x0 PUSH2 0x2857 PUSH1 0x26 DUP4 PUSH2 0x16BA JUMP JUMPDEST SWAP2 POP PUSH2 0x2862 DUP3 PUSH2 0x27FB JUMP JUMPDEST PUSH1 0x40 DUP3 ADD SWAP1 POP SWAP2 SWAP1 POP JUMP JUMPDEST PUSH1 0x0 PUSH1 0x20 DUP3 ADD SWAP1 POP DUP2 DUP2 SUB PUSH1 0x0 DUP4 ADD MSTORE PUSH2 0x2886 DUP2 PUSH2 0x284A JUMP JUMPDEST SWAP1 POP SWAP2 SWAP1 POP JUMP JUMPDEST PUSH32 0x4F776E61626C653A2063616C6C6572206973206E6F7420746865206F776E6572 PUSH1 0x0 DUP3 ADD MSTORE POP JUMP JUMPDEST PUSH1 0x0 PUSH2 0x28C3 PUSH1 0x20 DUP4 PUSH2 0x16BA JUMP JUMPDEST SWAP2 POP PUSH2 0x28CE DUP3 PUSH2 0x288D JUMP JUMPDEST PUSH1 0x20 DUP3 ADD SWAP1 POP SWAP2 SWAP1 POP JUMP JUMPDEST PUSH1 0x0 PUSH1 0x20 DUP3 ADD SWAP1 POP DUP2 DUP2 SUB PUSH1 0x0 DUP4 ADD MSTORE PUSH2 0x28F2 DUP2 PUSH2 0x28B6 JUMP JUMPDEST SWAP1 POP SWAP2 SWAP1 POP JUMP INVALID LOG2 PUSH5 0x6970667358 0x22 SLT KECCAK256 0xAD PUSH29 0x3F3BFB1310B8B5858CAD5AEDFAB90B148E7A9AA9682937ACB44B8F6EEA CALLDATASIZE PUSH5 0x736F6C6343 STOP ADDMOD EQ STOP CALLER "},"methodIdentifiers":{"MAX_MILESTONES()":"4c05abeb","MIN_FUNDING_AMOUNT()":"d2a7d38a","createResearchProposal(string,string,uint256,string[],uint256[],uint256[])":"ad462ba1","fundProposal(uint256)":"e210f4b5","getResearcherProposals(address)":"56046b1a","owner()":"8da5cb5b","proposalCounter()":"0c0512e9","proposals(uint256)":"013cf08b","registerResearcher(bytes32,string,string,string[])":"398642dc","renounceOwnership()":"715018a6","researcherProposals(address,uint256)":"a1c92b9a","researchers(address)":"01bc237d","submitMilestone(uint256,uint256)":"0875b784","transferOwnership(address)":"f2fde38b","verifyResearcher(address)":"73fd653d","withdrawFunds()":"24600fc3"}}}}}